:100000000C94460018950000189500001895000003
:10001000189500001895000018950000189500002C
:10002000189500001895000018950000189500001C
:10003000189500001895000018950000189500000C
:1000400018950000189500001895000018950000FC
:1000500018950000189500001895000018950000EC
:1000600018950000189500001895000018950000DC
:1000700018950000189500000C94250518950000AF
:100080001895000018950000189500008FEF8DBF9F
:10009000C0EBECE34E2E80E18EBFD0E1F0E15F2EAD
:1000A000A89584B7082E877F84BF88E1992781BDF2
:1000B00091BDEEEFFFE0A0E0B1E088278D9331978E
:1000C000E9F787E089B980E08093900088E18AB9F8
:1000D00080E08093980087E08093990088E1809386
:1000E0009A0066248C9AD39AD49AD59AD69ABC9AB6
:1000F000B89A709161007D7F709361007091620089
:10010000726070936200949A8F9A979A87E08093B6
:10011000990080E08093980070919B007D7F7093A0
:100120009B0086E080939D0088E180939A0080E0A8
:1001300090E0A2E0B1E08D939C9380E08093100C5E
:1001400088E280930D0C8FE080930E0C88EC8093F6
:100150000F0C80E08093110CE0EFF9E20E94B716DB
:10016000A1E1BCE08C9199270E941716A5ECB6E09E
:100170000E94E215E0E1FAE20E94B716A1E1BCE0BC
:100180008C9199270E941716A4EEB6E00E94E21502
:10019000E0ECF9E20E94B716A1E1BCE08C9199274E
:1001A0000E941716A3E0B7E00E94E21585E09DE0EB
:1001B000A3E1B7E08D939C93A5E1B7E088278C93EA
:1001C00070919F077F7E70939F0770919F07777F45
:1001D00070939F0770919F077B7F70939F07AFE994
:1001E000B7E08C9184FB81E00EF080E08F93AFE963
:1001F000B7E08C9183FB81E00EF080E09F91892332
:10020000882311F40C941501E2ECF1E0A4ECB6E0C3
:100210000E946317A4ECB6E08C9180FBAFE9B7E0D5
:100220008C9185F98C930C941A0170919F077F7DB6
:1002300070939F0700E010E020E030E0ADEBB6E007
:100240000D931D932D933C9381E080937B070E9437
:10025000C30EE6ECF6E20E94B71680E090E00E9442
:100260001716A4E2B0E10E94E2150E9439150E941F
:100270004815E6ECF6E20E94B71681E090E00E9495
:100280001716A4E2B0E10E94E2150E9439150E94FF
:100290004815E6ECF6E20E94B71680E090E00E9476
:1002A0001716A4E2B0E10E94E2150E9439150E94DF
:1002B0004815E6ECF6E20E94B71682E090E00E9454
:1002C0001716A4E2B0E10E94E2150E9439150E94BF
:1002D0004815E6ECF6E20E94B71683E090E00E9433
:1002E0001716A4E2B0E10E94E2150E943915E4EC71
:1002F000F6E0A4E2B0E10E94E5160E9439150E94E2
:100300004815E6ECF6E20E94B71684E090E00E9401
:100310001716A4E2B0E10E94E2150E943915E0EC44
:10032000F9E20E94B716A1E1BCE08C9199270E94E6
:100330001716A4E2B0E10E94E2150E943915E2E02E
:10034000FFE20E94B7160E944115E3E1F7E0A4E244
:10035000B0E10E94D5160E9439150E944815E6ECBE
:10036000F6E20E94B71685E090E00E941716A4E21C
:10037000B0E10E94E2150E943915A5ECB6E00E949A
:100380003B150E944815E6ECF6E20E94B71686E09F
:1003900090E00E941716A4E2B0E10E94E2150E94CC
:1003A0003915A4EEB6E00E943B150E944815E4E022
:1003B000FFE20E94B7160E944115E4ECF6E0A4E2C9
:1003C000B0E10E94E5160E9439150E94481588EC9C
:1003D00090E00E94A41570919A00706870939A0042
:1003E000789481E08093230CDB9A0E941B0E0E947C
:1003F0009C1280E090E0A9E1BAE08D939C9381E0AB
:1004000090E0AAEBB6E08D939C93AAEBB6E00D9139
:100410001C91083250E015071CF011F00C943102C9
:10042000EAEBF6E0A190B190E6E0F0E0AA0CBB1C8C
:10043000AA0CBB1CEA0DFB1DAAEBB6E0AD90BD906B
:10044000AEEEB4E0AA0CBB1CAA0CBB1CAA0DBB1DD3
:1004500094E00E946617AAEBB6E00E942B150C945C
:100460000502A5E1B7E00E94B315082F192F00304F
:1004700050E0150718F011F00C9440020C946F0234
:1004800081E090E0AAEBB6E08D939C93A5E1B7E004
:100490000E94B315482F592FAAEBB6E00D911C917D
:1004A000041715071CF011F00C946F0281E090E026
:1004B000E5E1F7E001E010E00A931A93AAEFB2E059
:1004C0000E94BA15AAEFB2E0BA93AA930E944A0F0B
:1004D0002296AAEBB6E00E942B150C9446020091DE
:1004E000C106003018F011F00C9478020C9414033B
:1004F000A1ECB6E08C918F5F8C93ABE3B0E00C91F4
:1005000005FB81E00EF080E08F930091C10606307C
:1005100081E009F080E09F918923882311F40C94F5
:10052000F002EEE9F7E20E94B7168CE090E00E943C
:100530001716A7EAB7E00E94E215E5E2FAE0A7EA9B
:10054000B7E00E9432150E94D816A7EAB7E00E94D1
:100550003215E2E0FFE20E94B7160E94E215AFE911
:10056000B7E08C9185FBA7EAB7E00E9432150E94A4
:1005700029168D9388278C93E0E4F7E20E94B71642
:1005800086E090E00E941716A4E2B0E10E94E21516
:100590000E944F15A7EAB7E00E94B315082F192F44
:1005A000E0E1F0E0A4E2B0E10E94D5160E944F1510
:1005B0000E945E1584E690E00E94A415A7EAB7E0C9
:1005C0000E9451150E945E158EE190E00E94A415D4
:1005D000E8E0FFE20E94B7160E9457150E945E15E0
:1005E00040910E0C0091C106041718F011F00C9404
:1005F000FB020C94140380E08093C1067091C20644
:100600007F777093C206A2ECB6E08C9186FB16F061
:100610000C941403A5E1B7E00E943215ECE0FFE270
:100620000E94B7160E94E2150091C306003018F030
:1006300011F00C941D030C944103A3ECB6E08C91D3
:100640008F5F8C9340910D0C0091C306041718F036
:1006500011F00C942D030C9441030E941B0E80E0BA
:100660008093C3067091C2067F7B7093C206A5E19A
:10067000B7E00E943215EEE0FFE20E94B7160E943A
:10068000E215AFE9B7E08C9186FBABE3B0E08C916B
:1006900083F98C93ADEBB6E00E941E15AFE0BCE091
:1006A0004C91552766277727ADEBB6E00D911D914C
:1006B0002D913C910E94C2161CF011F00C94620323
:1006C0000C9464030E941B0EA2ECB9E088278C9363
:1006D000A6EBB6E0BA93AA930E94C9112296A3E1B1
:1006E000BAE00E942B1540E050E060E070E0A6EB1D
:1006F000B6E00D911D912D913C910E94C2161CF007
:1007000011F00C9485030C94D504DE9A80E090E0FF
:10071000AFEBB9E08D939C938EE68093140C81E04F
:1007200090E0AAEBB6E08D939C93A4E1BCE04D91E0
:100730005527AAEBB6E00D911C91041715071CF084
:1007400011F00C94C703EAEBF6E0A190B190E6E05B
:10075000F0E0AA0CBB1CAA0CBB1CEA0DFB1DA4E11B
:10076000B0E094E00E946617A6EBB6E00D911D91F3
:100770002D913C910E94C21611F00C94C1030C946F
:10078000C703AAEBB6E00E942B150C94950380E0FA
:1007900090E0A3E1BAE08D939C9385E68093140CDE
:1007A000A4E1BCE04D915527AAEBB6E00D911C9158
:1007B0000417150780E00CF481E08F93AFE9B7E0F0
:1007C0008C9185FB81E00EF480E09F918923882342
:1007D00011F40C941A04EEE9F7E20E94B71687E1CF
:1007E00090E00E941716A2ECB9E00E9432150E9418
:1007F000E215DD9AC49A80E090E0A3E1BAE08D931F
:100800009C93A6EBB6E00D911D912D913C91A5E234
:10081000BAE00D931D932D933C9380E08093100CD0
:100820008EE68093140CA4E1BCE08C918F5F8C93D6
:100830000C949B04AAEBB6E00D911C91043650E099
:10084000150780E014F009F081E08F93AAEBB6E081
:100850000D911C910E3650E0150781E014F009F05F
:1008600080E09F918923882311F40C947C04EEE9A5
:10087000F7E20E94B71688E190E00E941716A2ECFA
:10088000B9E00E9432150E94E2158BB390E28927ED
:100890008BBBC49A80E090E0A3E1BAE08D939C9377
:1008A00080E090E0A9E1BAE08D939C9370919F075E
:1008B0007F7D70939F07AFE9B7E08C9184FB16F0C2
:1008C0000C946B04E2ECF1E0A0E1BB2780E08C9398
:1008D0007BE70E945217A6EBB6E00D911D912D917A
:1008E0003C91A5E2BAE00D931D932D933C9380E0DB
:1008F0008093100C0C949B040091100C0E3F10F48C
:100900000C949604C498DD9880E090E0A3E1BAE0EE
:100910008D939C9300E010E020E030E0A5E2BAE087
:100920000D931D932D933C930C949B04A0E1BCE08C
:100930008C918F5F8C93A1ECB9E08C918F5F8C933D
:100940000091C109073018F011F00C94A9040C941F
:10095000D30480E08093C109A2ECB9E00E943B156A
:10096000E0E1FFE20E94B7160E944115E9E1FAE0DA
:10097000A4E2B0E10E94D5160E943915E2E1FFE23F
:100980000E94B7160E944115AFE9B7E08C9186FB33
:10099000A4E2B0E10E9429168D9388278C930E94CF
:1009A00039150E9448150C940C05AFEBB9E00E9474
:1009B0002B15AFEBB9E00D911C91033050E01507FA
:1009C0001CF011F00C94E6040C94ED04DE9880E029
:1009D00090E0AFEBB9E08D939C93A3E1BAE00D9169
:1009E0001C91043150E015071CF011F00C94FA042E
:1009F0000C940C05C498DD9880E090E0A3E1BAE087
:100A00008D939C9300E010E020E030E0A5E2BAE096
:100A10000D931D932D933C93A3E1BAE00D911C918E
:100A2000083C50E015071CF011F00C9419050C94CB
:100A30001F0580E090E0A3E1BAE08D939C9384E6EB
:100A400090E00E94A4150C9431020F921F922F92F5
:100A50003F924F925F927F92AF92BF920F931F93FC
:100A60002F933F934F935F936F937F938F939F93B6
:100A7000AF93BF93CF93DF93EF93FF938FB78F9392
:100A80008BB78F9388278BBFA9EFB2E080919C0032
:100A90008C93A2E0B1E00D911C91043F51E0150749
:100AA00018F011F00C94D70D81E00E94DC158AE05B
:100AB000A881B9818D9388278C93A881B9814C91A5
:100AC0000091F90204170FB681E0481A80E0580A35
:100AD00022960FBE81E009F080E08F93A4E0B1E0A0
:100AE0008C91803081E009F480E09F9189238823F4
:100AF00011F40C94D70C80E080937A0781E0809306
:100B00007B07A4E0B1E00E943B15ECE1FFE20E940C
:100B1000B7160E944115E2E0F1E0A4E2B0E10E94C4
:100B2000D5160E943915E0E2FFE20E94B7160E9436
:100B300041150E94481581E00E94DC15EEE9F7E2BC
:100B40000E94B7168AE190E00E941716A881B98129
:100B50000E94E215E881F981A4E0B1E00E946F17DC
:100B60000FB681E0481A80E0580A22960FBE81E055
:100B700009F080E08F93A2ECB6E08C9184FB81E0D9
:100B80000EF480E09F918923882311F40C94D905F9
:100B9000A5E1B7E00E943215E2E2FFE20E94B7163B
:100BA0000E94E2157091C20670617093C2060C94A7
:100BB000CB0C81E00E94DC15EEE9F7E20E94B7164B
:100BC0008BE190E00E941716A881B9810E94E2157E
:100BD000E881F981A4E0B1E00E946F170FB681E0CF
:100BE000481A80E0580A22960FBE81E009F080E0A2
:100BF0008F9381E00E94DC15EEE9F7E20E94B716C0
:100C00008CE190E00E941716A881B9810E94E2153C
:100C1000E881F981A4E0B1E00E946F170FB681E08E
:100C2000481A80E0580A22960FBE81E009F080E061
:100C30009F91892B8F93A2ECB6E08C9183FB81E08E
:100C40000EF480E09F918923882311F40C943906D7
:100C5000A5E1B7E00E943215EEE0FFE20E94B71670
:100C60000E94E2157091C20678607093C2060C94DF
:100C7000CB0C81E00E94DC15EEE9F7E20E94B7168A
:100C80008DE190E00E941716A881B9810E94E215BB
:100C9000E881F981A4E0B1E00E946F170FB681E00E
:100CA000481A80E0580A22960FBE81E009F080E0E1
:100CB0008F9381E00E94DC15EEE9F7E20E94B716FF
:100CC0008EE190E00E941716A881B9810E94E2157A
:100CD000E881F981A4E0B1E00E946F170FB681E0CE
:100CE000481A80E0580A22960FBE81E009F080E0A1
:100CF0009F91892B8F9381E00E94DC15EEE9F7E24A
:100D00000E94B7168FE190E00E941716A881B98162
:100D10000E94E215E881F981A4E0B1E00E946F171A
:100D20000FB681E0481A80E0580A22960FBE81E093
:100D300009F080E09F91892B8F93A2ECB6E08C9113
:100D400086FB81E00EF080E09F9189238F93A2ECD7
:100D5000B6E08C9182FB81E00EF480E09F918923C4
:100D6000882311F40C94C506A5E1B7E00E94321562
:100D7000E4E2FFE20E94B7160E94E2157091C206FB
:100D800074607093C2060C94CB0C81E00E94DC1559
:100D9000EEE9F7E20E94B71680E290E00E94171693
:100DA000A881B9810E94E215E881F981A4E0B1E04F
:100DB0000E946F170FB681E0481A80E0580A229609
:100DC0000FBE81E009F080E08F9381E00E94DC1586
:100DD000EEE9F7E20E94B71681E290E00E94171652
:100DE000A881B9810E94E215E881F981A4E0B1E00F
:100DF0000E946F170FB681E0481A80E0580A2296C9
:100E00000FBE81E009F080E09F91892B8F9381E0F4
:100E10000E94DC15EEE9F7E20E94B71682E290E04C
:100E20000E941716A881B9810E94E215E881F98114
:100E3000A4E0B1E00E946F170FB681E0481A80E08D
:100E4000580A22960FBE81E009F080E09F91892B1D
:100E50008F9381E00E94DC15EEE9F7E20E94B7165D
:100E600083E290E00E941716A881B9810E94E215E2
:100E7000E881F981A4E0B1E00E946F170FB681E02C
:100E8000481A80E0580A22960FBE81E009F080E0FF
:100E90009F91892B8F93A2ECB6E08C9181FB81E02E
:100EA0000EF480E09F918923882311F40C94690744
:100EB000A5E1B7E00E943215E6E2FFE20E94B71614
:100EC0000E94E2157091C20672607093C2060C9483
:100ED000CB0C86EF91E00E94DD1581E090E0E4E02C
:100EE000F1E005E010E00A931A93AA81BB810E9409
:100EF000BA15A881B981E8E2FFE20E94B7160E9404
:100F00006D170FB686EF481A81E0580A22960FBE79
:100F100081E009F080E08F93AFE9B7E08C9187FB27
:100F200081E00EF480E09F918923882311F40C94D2
:100F3000CB0CA2E0B1E00D911C91083E51E01507E9
:100F400011F00C94620CE4E0F1E0ADEFB2E00E942D
:100F5000471770919F077F7770939F07A6ECB7E0C4
:100F600088278C93ABEBB9E088278C9380E0809343
:100F7000BD0980E08093BE09ADEFB2E00E94B315D9
:100F8000082F192F053050E0150718F011F00C94B8
:100F9000CB070C94600C81E090E0AAEBB6E08D9357
:100FA0009C93AAEBB6E00D911C910A3050E0150716
:100FB0001CF011F00C94080886EF91E00E94DD15FA
:100FC000AAEBB6E08D919C91EDEFF2E001E010E02C
:100FD0000A931A93AA81BB810E94BA15A881B9818C
:100FE000E2E0FFE20E94B7160E946D170FB686EF8F
:100FF000481A81E0580A22960FBE11F00C9402089C
:101000000C940808AAEBB6E00E942B150C94D107AB
:10101000AAEBB6E00E942B15AAEBB6E08D919C914D
:10102000EDEFF2E00BE110E00A931A93A6ECB7E0C3
:101030000E94BA15ADEFB2E088278C9300E010E073
:1010400020E030E0A9E0BAE00D931D932D933C938E
:1010500081E00E94DC15EEE9F7E20E94B71689E014
:1010600090E00E941716A881B9810E94E215E881DC
:10107000F981A6ECB7E00E946F170FB681E0481A1D
:1010800080E0580A22960FBE11F00C94600C00E02C
:1010900010E020E030E0A1E2BAE00D931D932D9323
:1010A0003C9300E010E020E030E0ADE1BAE00D93C9
:1010B0001D932D933C938EE68093130CA3E1BCE02B
:1010C0008C918F5F8C938EE68093150CA5E1BCE02C
:1010D0008C918D5F8C9381E090E0AAEBB6E08D93CC
:1010E0009C93A5E1BCE04D915527AAEBB6E00D918C
:1010F0001C91041715071CF011F00C942B0AAAEB95
:10110000B6E0AD90BD90AEEEB4E0AA0CBB1CAA0C4C
:10111000BB1CAA0DBB1D0D911D912D913C91A9E009
:10112000BAE00D931D932D933C9398E1A9E0BAE0AA
:101130000E94E815A9E0BAE00D911D912D913C9116
:10114000ACE7B7E00D931D932D933C93AAEBB6E06B
:10115000AD90BD90AEEEB4E0AA0CBB1CAA0CBB1CBB
:10116000AA0DBB1D0D911D912D913C91A9E0BAE0F6
:101170000D931D932D933C9398E0A9E0BAE00E9453
:10118000E815A9E0BAE00D911D912D913C9140E048
:1011900050E06FEF70E00E946D15A9E0BAE00D938A
:1011A0001D932D933D93ACE7B7E00D911D912D91CB
:1011B0003C91A9E0BAE04D915D916D917C910E94C6
:1011C0006815ACE7B7E00D931D932D933D93AAEB03
:1011D000B6E0AD90BD90AEEEB4E0AA0CBB1CAA0C7C
:1011E000BB1CAA0DBB1D0D911D912D913C91A9E039
:1011F000BAE00D931D932D933C9398E0A9E0BAE0DB
:101200000E940016A9E0BAE00D911D912D913C912C
:1012100040E05FEF60E070E00E946D15A9E0BAE089
:101220000D931D932D933D93ACE7B7E00D911D9168
:101230002D913C91A9E0BAE04D915D916D917C9129
:101240000E946815ACE7B7E00D931D932D933D9375
:10125000AAEBB6E0AD90BD90AEEEB4E0AA0CBB1C1C
:10126000AA0CBB1CAA0DBB1D0D911D912D913C918B
:10127000A9E0BAE00D931D932D933C9398E1A9E06A
:10128000BAE00E940016A9E0BAE00D911D912D91DF
:101290003C914FEF50E060E070E00E946D15A9E0D6
:1012A000BAE00D931D932D933D93ACE7B7E00D91FC
:1012B0001D912D913C91A9E0BAE04D915D916D9108
:1012C0007C910E946815ACE7B7E00D931D932D93B8
:1012D0003D93A3E1BCE04D915527AAEBB6E00D91FB
:1012E0001C91041715070CF402C00C94CD09ACE74F
:1012F000B7E00D911D912D913C91AAEBB6E0AD9018
:10130000BD90AEEEB4E0AA0CBB1CAA0CBB1CAA0D8F
:10131000BB1D0D931D932D933C93E0E1FFE20E94D2
:10132000B7160E944115EAEBF6E0A190B190EEEEFF
:10133000F4E0AA0CBB1CAA0CBB1CEA0DFB1DA4E22A
:10134000B0E10E94D8160E943915ACE7B7E00D91C4
:101350001D912D913C914FE050E060E070E00E94C3
:101360006D15A9E0BAE00D931D932D933D93A1E275
:10137000BAE00D911D912D913C91A9E0BAE04D91FB
:101380005D916D917C910E94BD16A1E2BAE00D9332
:101390001D932D933D930C94250AA3E1BCE04D9140
:1013A0005527AAEBB6E00D911C910417150711F013
:1013B0000C94E809ACE7B7E00D911D912D913C919B
:1013C000ADE1BAE00D931D932D933C930C94250A47
:1013D000A3E1BCE04D915527AAEBB6E00D911C911D
:1013E0000417150780E014F009F081E08F93A5E160
:1013F000BCE04D915527AAEBB6E00D911C91041766
:10140000150780E00CF481E09F918923882311F473
:101410000C94100A80917C0780931A0C0C94250A76
:10142000A5E1BCE04D915527AAEBB6E00D911C91CA
:101430000417150711F00C94250AACE7B7E08D915D
:101440009C91ABE1BCE08D939C93AAEBB6E00E942B
:101450002B150C947108EEE2FFE20E94B7160E9471
:1014600041150E944815E0E3FFE20E94B7160E9472
:101470004115EDE1FAE0A4E2B0E10E94D8160E9425
:101480003915E6E3FFE20E94B7160E944115E1E23A
:10149000FAE0A4E2B0E10E94D8160E943915E2E415
:1014A000FFE20E94B7160E944115EAE1FCE0A4E2C7
:1014B000B0E10E94E5160E943915EEE4FFE20E94B9
:1014C000B7160E944115EBE1FCE0A4E2B0E10E94F6
:1014D000DE160E9439150E944815A1E2BAE04D912E
:1014E0005D916D917C91ADE1BAE00D911D912D91D1
:1014F0003C910E94C21681E009F080E08F9340E0A9
:1015000050E060E070E0ADE1BAE00D911D912D91E9
:101510003C910E94C21680E014F009F081E09F9196
:1015200089238F9340E050E060E070E0A1E2BAE0F0
:101530000D911D912D913C910E94C21680E014F0F6
:1015400009F081E09F918923882311F40C943A0CCF
:1015500000E010E020E030E0ADEBB6E00D931D932D
:101560002D933C938091130C81508093130C81E058
:1015700090E0AAEBB6E08D939C93A3E1BCE04D9183
:101580005527AAEBB6E00D911C91041715071CF026
:1015900011F00C94FF0AEAEBF6E0A190B190E6E0BE
:1015A000F0E0AA0CBB1CAA0CBB1CEA0DFB1DA9E0B9
:1015B000BAE094E00E946617AAEBB6E0AD90BD9049
:1015C000AEEEB4E0AA0CBB1CAA0CBB1CAA0DBB1D42
:1015D0004D915D916D917C91A9E0BAE00D911D91C5
:1015E0002D913C910E94C21611F40C94F90A0C94AE
:1015F000FF0AAAEBB6E00E942B150C94BD0AA3E1EA
:10160000BCE08C918F5F8C93A3E1BCE04D9155279A
:10161000AAEBB6E00D911C91041715070CF402C05B
:101620000C94640B8091130C81508093130C81E017
:1016300090E0AAEBB6E08D939C93A3E1BCE04D91C2
:101640005527AAEBB6E00D911C91041715071CF065
:1016500011F00C944D0BEAEBF6E0A190B190E6E0AE
:10166000F0E0AA0CBB1CAA0CBB1CEA0DFB1DAAEBEC
:10167000B6E0AD90BD90AEEEB4E0AA0CBB1CAA0CD7
:10168000BB1CAA0DBB1D94E07BE70E945517AAEB7B
:10169000B6E00E942B150C941D0BA3E1BCE08C91CD
:1016A0008F5F8C93EEE9F7E20E94B7168AE090E034
:1016B0000E941716A4E2B0E10E94E2150E943915BB
:1016C0000E9448150C94740BEEE9F7E20E94B716DD
:1016D0008BE090E00E941716A4E2B0E10E94E215B0
:1016E0000E9439150E944815E0E0F0E0A4E1B0E066
:1016F0000E94631700911A0C041781E009F480E03E
:101700008F93E1E0F0E0A4E1B0E00E946517ABE167
:10171000BCE00D911C910417150781E009F480E0ED
:101720009F91892B882311F40C94CF0BABE1BCE083
:101730000D911C91003050E0150781E009F480E024
:101740008F9300911A0C003081E009F480E09F91A2
:101750008923882311F40C94C50BE0E0F0E0AAE1A2
:10176000BCE07BE70E945217E1E0F0E0ABE1BCE0B7
:101770007BE70E945417EAE5FFE20E94B7160E9439
:1017800041150E9448150C94CD0BEEE6FFE20E9435
:10179000B7160E9441150E9448150C94D70BEAE831
:1017A000FFE20E94B7160E9441150E9448150E9450
:1017B000D212EEE9F7E20E94B7168CE090E00E94A8
:1017C0001716A7EAB7E00E94E215E6EBF6E0A7EAF3
:1017D000B7E00E9432150E94D816A7EAB7E00E942F
:1017E0003215E2E0FFE20E94B7160E94E215AFE96F
:1017F000B7E08C9185FBA7EAB7E00E9432150E9402
:1018000029168D9388278C93E0E4F7E20E94B7169F
:1018100086E090E00E941716A4E2B0E10E94E21573
:101820000E944F15A7EAB7E00E94B315082F192FA1
:10183000E0E1F0E0A4E2B0E10E94D5160E944F156D
:101840000E945E158EE190E00E94A415A7EAB7E021
:101850000E9451150E945E158EE190E00E94A41531
:10186000E8E0FFE20E94B7160E9457150E945E153D
:101870000C94600CEEE9F7E20E94B71685E290E066
:101880000E941716A4E2B0E10E94E2150E943915E9
:101890000E94481500E010E020E030E0A9E2BAE044
:1018A0000D931D932D933C938EE190E00E94A4151F
:1018B000E8E0FFE20E94B7160E9457150E945E15ED
:1018C0000C94CB0C8091130C81508093130C81E00D
:1018D0008093BC064091130C0091BC06041718F0CD
:1018E00011F00C94AE0CECEBF6E0A190BB24EEEE04
:1018F000F4E0AA0CBB1CAA0CBB1CEA0DFB1DA4E265
:10190000B0E10E94D8160E943915E0E1FFE20E9482
:10191000B7160E944115ECEBF6E0A190BB24E6E07F
:10192000F0E0AA0CBB1CAA0CBB1CEA0DFB1DACEB27
:10193000B6E0AD90BB24AEEEB4E0AA0CBB1CAA0C82
:10194000BB1CAA0DBB1D94E00E946617ACEBB6E071
:101950008C918F5F8C9310F40C946A0CA3E1BCE023
:101960008C918F5F8C93EEE2FFE20E94B7160E948B
:1019700041150E944815EEE9F7E20E94B71685E28C
:1019800090E00E941716A4E2B0E10E94E2150E94C6
:1019900039150E944815A4E0B1E088278C9380E0B7
:1019A00090E0A2E0B1E08D939C930C94D50D81E082
:1019B0000E94DC158AE0A881B9818D9388278C93D9
:1019C000A881B9814C910091F90204170FB681E00A
:1019D000481A80E0580A22960FBE11F40C94CF0DDD
:1019E000A2E0B1E00D911C91033250E0150780E0B8
:1019F00010F009F081E08F93A2ECB6E08C9185FBAA
:101A000081E00EF080E09F918923882311F40C94EB
:101A10009A0DA3E1BCE08C918F5F8C93A3E1BCE0B5
:101A20008C918F5F8C93A3E1BCE08C918F5F8C9342
:101A30004091130C00917B07041710F00C94890D52
:101A400000917A07003011F00C943A0D00E010E09C
:101A500020E030E0ABE7B7E0AD90BB24AEEEB4E001
:101A6000AA0CBB1CAA0CBB1CAA0DBB1D0D931D937D
:101A70002D933C93AAE7B7E08C918F5F8C93ABE7F3
:101A8000B7E0AD90BB24AEEEB4E0AA0CBB1CAA0C30
:101A9000BB1CAA0DBB1D0D911D912D913C91A9EF71
:101AA000B2E04C915527662777270E946815ABE76F
:101AB000B7E0AD90BB24AEEEB4E0AA0CBB1CAA0C00
:101AC000BB1CAA0DBB1D0D931D932D933D9300913F
:101AD0007A07033018F011F00C94700D0C947A0D05
:101AE00080E080937A07ABE7B7E08C918F5F8C93AF
:101AF0000C94890D98E0ABE7B7E0AD90BB24AEEE57
:101B0000B4E0AA0CBB1CAA0CBB1CAA0DBB1D0E94F6
:101B1000E8158091130C81508093130C8091130C65
:101B200081508093130C8091130C81508093130C7F
:101B30000C94C90D81E00E94DC158DE0A881B9816B
:101B40008D9388278C93A881B9814C910091F902DB
:101B500004170FB681E0481A80E0580A22960FBE9B
:101B600011F40C94BF0DA9EFB2E08C91A4E0B1E0A8
:101B70000E9432158D9388278C930C94C90DA2E096
:101B8000B1E00D911C9101501040A2E0B1E00D9325
:101B90001C93A2E0B1E00E942B150C94D50D80E0BF
:101BA00090E0A2E0B1E08D939C930C94FD0DEEE9E2
:101BB000F7E20E94B71686E290E00E941716A4E2B0
:101BC000B0E10E94E2150E943915E0EAFFE20E94AE
:101BD000B7160E944115E4EAFFE20E94B7160E9480
:101BE00041150E944815A4E0B1E088278C9380E05D
:101BF00090E0A2E0B1E08D939C938F918BBF8F9189
:101C00008FBFFF91EF91DF91CF91BF91AF919F91E6
:101C10008F917F916F915F914F913F912F911F9184
:101C20000F91BF90AF907F905F904F903F902F901B
:101C30001F900F90189500E010E020E030E0ADEB31
:101C4000B6E00D931D932D933C93DC987091C206E2
:101C50007F7D7093C206EEE9F7E20E94B71680E03E
:101C600090E00E941716A4E2B0E10E94E2150E94E3
:101C700039150E944815949884EF91E00E94A415AC
:101C8000949A84EF91E00E94A4150E94C30EE0E4B0
:101C9000F7E20E94B71680E090E00E941716A4E2D7
:101CA000B0E10E94E2150E944F150E945E1588EC7B
:101CB00090E00E94A415E0E4F7E20E94B71681E0EC
:101CC00090E00E941716A4E2B0E10E94E2150E9483
:101CD0004F150E945E1588EC90E00E94A415E0E488
:101CE000F7E20E94B71682E090E00E941716A4E285
:101CF000B0E10E94E2150E944F150E945E1588EC2B
:101D000090E00E94A415E0E4F7E20E94B71683E099
:101D100090E00E941716A4E2B0E10E94E2150E9432
:101D20004F150E945E1588EC90E00E94A415E0E437
:101D3000F7E20E94B71684E090E00E941716A4E232
:101D4000B0E10E94E2150E944F150E945E1588ECDA
:101D500090E00E94A415A5ECB6E0BA93AA93A4EE75
:101D6000B6E0BA93AA930E94F30E24967091C2062D
:101D700070627093C20670919F077F7B70939F077C
:101D80000E94D2120895E0EFF9E20E94B716A1E195
:101D9000BCE08C9199270E941716A5ECB6E00E9432
:101DA000E215E0E1FAE20E94B716A1E1BCE08C91F5
:101DB00099270E941716A4EEB6E00E94E215E0EC07
:101DC000F9E20E94B716A1E1BCE08C9199270E942C
:101DD0001716A3E0B7E00E94E2158BE38093C406D8
:101DE0000E94D2120895EEE9F7E20E94B71681E050
:101DF00090E00E941716A4E2B0E10E94E2150E9452
:101E00003915AA81BB810E943B15E6EAFFE20E94D8
:101E1000B7160E944115A881B9810E943B150E9406
:101E2000481584EF91E00E94A415E0E4F7E20E94D7
:101E3000B71685E090E00E941716A4E2B0E10E9478
:101E4000E2150E944F1582E20E946115AA81BB81B2
:101E50000E94511582E20E946115ECEAFFE20E94A5
:101E6000B7160E94571582E20E946115A881B981B8
:101E70000E94511582E20E9461158DE00E94611559
:101E80008AE00E9461150E945E1588EE93E00E9430
:101E9000A4150895A0EAB7E088278C9380E080938A
:101EA000A607A7EAB7E088278C9300E010E020E0BF
:101EB00030E0ADEBB6E00D931D932D933C93A5E17F
:101EC000B7E00E94B315082F192F013050E0150715
:101ED00018F011F00C946E0F0C947C0F82E090E0DF
:101EE000E5E1F7E003E610E00A931A93A5E1B7E015
:101EF0000E94BA150C94800FA5E1B7E088278C9357
:101F0000A881B981E2E2FFE20E94B7160E946D1734
:101F100011F00C94B90FEEE9F7E20E94B71682E0D7
:101F200090E00E941716A4E2B0E10E94E2150E9420
:101F300039150E944815A5E1B7E00E943215ECE082
:101F4000FFE20E94B7160E94E2157091C20670640B
:101F50007093C20680E08093C3067091C2067F7EB4
:101F60007093C20670919F07706470939F070C94E2
:101F7000C811EEE0FFE20E94B7160E946D1711F043
:101F80000C94F40FEEE9F7E20E94B71683E090E0BC
:101F90000E941716A4E2B0E10E94E2150E943915D2
:101FA0000E944815DC98A5ECB6E0BA93AA93A4EE7B
:101FB000B6E0BA93AA930E94F30E24967091C206DB
:101FC0007F7B7093C206A3ECB6E08C918F5F8C93FD
:101FD0007091C206777F7093C20670919F077F7BD6
:101FE00070939F070C94C811E4E2FFE20E94B716B9
:101FF0000E946D1711F00C944E10E0ECF9E20E9473
:10200000B716A1E1BCE08C9199270E941716A4E2B3
:10201000B0E10E94E2150E943915E2E0FFE20E9461
:10202000B7160E944115E3E1F7E0A4E2B0E10E9497
:10203000D5160E943915EEE9F7E20E94B71684E042
:1020400090E00E941716A4E2B0E10E94E2150E94FF
:1020500039150E944815DC98A2ECB6E08C9186FBFD
:1020600016F00C943D10A5E1B7E00E943215ECE0AB
:10207000FFE20E94B7160E94E2157091C2067F77B8
:102080007093C206A3ECB6E08C918F5F8C93709135
:10209000C2067B7F7093C2060C94C811E6E2FFE291
:1020A0000E94B7160E946D1711F00C942311EEE9EF
:1020B000F7E20E94B71685E090E00E941716A4E2AE
:1020C000B0E10E94E2150E943915E0ECF9E20E94AD
:1020D000B716A1E1BCE08C9199270E941716A4E2E3
:1020E000B0E10E94E2150E943915E2E0FFE20E9491
:1020F000B7160E944115E3E1F7E0A4E2B0E10E94C7
:10210000D5160E9439150E944815DC9A7091C206B6
:1021100070687093C20680E08093C10680E080936F
:10212000C3067091C2067D7F7093C206A0E8B7E037
:1021300088278C93EEE9F7E20E94B71686E090E0DC
:102140000E941716A0E8B7E00E94E215A0E8B7E0E9
:102150000E943215E2E0FFE20E94B7160E94E215EB
:10216000E4ECF6E0A0E8B7E00E9432150E94E51624
:10217000A0E8B7E00E943215ECEAFFE20E94B71631
:102180000E94E215E6EBF6E0A0E8B7E00E94321507
:102190000E94D816A0E8B7E00E943215ECEAFFE2F0
:1021A0000E94B7160E94E215AFE9B7E08C9185FB5B
:1021B000A0E8B7E00E9432150E9429168D93882767
:1021C0008C93A0E8B7E00E943215E2E0FFE20E94A3
:1021D000B7160E94E215EEE9F7E20E94B71686E014
:1021E00090E00E941716A0E8B7E00E9432150E9406
:1021F000E215E0E4F7E20E94B71686E090E00E9464
:102200001716A4E2B0E10E94E2150E944F15A0E863
:10221000B7E00E94B315082F192FE0E1F0E0A4E227
:10222000B0E10E94D5160E944F150E945E1588EC01
:1022300090E00E94A415A0E8B7E00E9451150E940A
:102240005E150C94C811ECE0FFE20E94B7160E94E4
:102250006D1711F00C94BF11EEE9F7E20E94B7166A
:1022600087E090E00E941716A4E2B0E10E94E21518
:102270000E943915E0ECF9E20E94B716A1E1BCE03A
:102280008C9199270E941716A4E2B0E10E94E215F2
:102290000E943915E2E0FFE20E94B7160E94411544
:1022A000E3E1F7E0A4E2B0E10E94D5160E943915FF
:1022B0000E944815DC9888EE93E00E94A415E0E4A3
:1022C000F7E20E94B71687E090E00E941716A4E29A
:1022D000B0E10E94E2150E944F1582E20E94611552
:1022E000EEE9F7E20E94B71688E090E00E94171628
:1022F000A4E2B0E10E94E2150E944F1582E20E9422
:102300006115ECEAFFE20E94B7160E94571582E2BF
:102310000E946115E0ECF9E20E94B716A1E1BCE071
:102320008C9199270E941716A4E2B0E10E94E21551
:102330000E944F1582E20E946115ECEAFFE20E94C2
:10234000B7160E945715E3E1F7E0A4E2B0E10E945E
:10235000D5160E944F158DE00E9461158AE00E94FB
:1023600061150E945E15A1ECB6E08C918F5F8C9395
:102370007091C2067E7F7093C2060C94C811EEEA7B
:10238000FFE20E94B7160E946D1711F00C94C8115D
:10239000089580E08093120A00E010E020E030E031
:1023A000AEE0BAE00D931D932D933C9380E08093B3
:1023B0000D0A81E080930D0A00910D0A0A3018F091
:1023C00011F00C94F91180E0E9E30E943C1662FAE6
:1023D00016F40C94ED110C94F91184E190E00E9434
:1023E000A415ADE0BAE08C918F5F8C9310F40C943F
:1023F000DC1100910D0A0B3010F00C948F1253E396
:1024000080E0E9E30E946416EEE9F7E20E94B71665
:1024100083E190E00E941716A2ECB9E00E94E21559
:1024200081E080930D0A00910D0A083018F011F038
:102430000C946512BB27A6E180E0E9E321E02A9332
:102440000E948C16A2E1BAE05C93E2E1FAE0A2EC11
:10245000B9E00E9432150E942B17A2ECB9E00E944D
:102460003215E0E1FFE20E94B7160E94E2150091EA
:102470000D0A043018F011F00C9440120C9459120B
:1024800098E0AEE0BAE00E94E815AEE0BAE00D9147
:102490001D912D913C91A2E1BAE04C915527662700
:1024A00077270E946815AEE0BAE00D931D932D9337
:1024B0003D9381E090E00E94A415ADE0BAE08C91DC
:1024C0008F5F8C9310F40C941312A2ECB9E00E946D
:1024D0003215E0EBFFE20E94B7160E94E215EEE92A
:1024E000F7E20E94B71684E190E00E941716A2EC72
:1024F000B9E00E9432150E94E215EEE0FAE0A2EC8B
:10250000B9E00E9432150E94D816A2ECB9E00E94F0
:102510003215E0E2FFE20E94B7160E94E215AEE03B
:10252000BAE00D911D912D913C91A881B9810D9337
:102530001D932D933C93089581E090E0AAEBB6E0C3
:102540008D939C93A4E1BCE04D915527AAEBB6E096
:102550000D911C91041715071CF011F00C94D11269
:10256000EAEBF6E0A190B190E6E0F0E0AA0CBB1C2B
:10257000AA0CBB1CEA0DFB1DAAEBB6E0AD90BD900A
:10258000AEEEB4E0AA0CBB1CAA0CBB1CAA0DBB1D72
:1025900094E00E946617AAEBB6E00E942B150C94FB
:1025A000A2120895E0E0F0E0ADE1BCE00E94631704
:1025B000E1E0F0E0AEE1BCE00E94651780E090E071
:1025C000A0E2BCE08D939C938AE08093220CAEE164
:1025D000BCE00D911C9140E05FE004231523A0E2D4
:1025E000BCE00D931C9398E0A0E2BCE00E94F515BE
:1025F0000091220C4091200C040FA2E2BCE00C934D
:10260000AEE1BCE00D911C914FE050E00423152396
:10261000A0E2BCE00D931C930091220C4091200C91
:10262000040FA2E2BCE00C93ADE1BCE00D911127D8
:102630004FE050E004231523A0E2BCE00D931C936F
:102640000091220C4091200C040FA2E2BCE00C93FC
:102650008AEA0E94841532E0AEE1BCE00E949F1538
:1026600031E0ADE1BCE00E949F1531E0A2E2BCE0A8
:102670000E949F15EEE2FFE20E94B7160E94941599
:102680000E949B15E2EBFFE20E94B7160E944115E3
:10269000EDE1FCE0A4E2B0E10E94E5160E943915EC
:1026A000EEECFFE20E94B7160E944115EEE1FCE05D
:1026B000A4E2B0E10E94DE160E9439150E9448157E
:1026C0000895F894FFCF23232323232323232323B5
:1026D0002323232323232323232323230053797317
:1026E00074656D207374617274696E6700506172F5
:1026F000616D65747273206465766963653A00691B
:1027000064206465766963653D20230041647265D9
:102710007320616E6420706F7274207365727665C9
:10272000723D20004E616D6520535349443A2000AC
:1027300050617373776F726420535349443A200099
:10274000415445300041542B43574D4F44453D3192
:102750000041542B4349504D4F44453D30004154B6
:102760002B4349504D55583D300041542B43574160
:1027700055544F434F4E4E3D300041542B43574A22
:1027800041503D0041542B43495053454E443D0078
:1027900041542B43495053544152543D000052651B
:1027A00073657420616E642073657474696E67204C
:1027B00057692D4669206D6F64756C00436F6E6EAE
:1027C00065637420535349443A2000526563697627
:1027D00065642049502053534944004C6F73742062
:1027E000636F6E6E6563742E205265636F6E6E65E7
:1027F000637420535349440020636F6E6E656374A5
:10280000696F6E2062726F6B656E2100436F6E6E32
:1028100065637420007374617274004D616B652090
:102820005443502D636F6E6E656374696F6E2069DB
:1028300073200054435000524649445F4C697374FE
:102840005F66697865645F6C656E5F626C61626C1F
:10285000613A004E6577206C697374205246494492
:102860002D636172642061646420696E2045455067
:10287000524F4D0053656E642062792052464944A0
:102880002D6C697374203D20454550524F4D2D6C81
:1028900069737400526669645F6375723D005365C5
:1028A0007441503A0053657449443A004E657720AC
:1028B000494420626F6172643A2023004572726F4E
:1028C000722069643A200053657449503A004E659D
:1028D00077204950207365727665723A200052461F
:1028E0004944203D20004C6F6E67203D20004E651E
:1028F0007720706F726F67206865743D0048697457
:1029000074696E6720626F617264212056616C7514
:10291000653A2000202D205573657200202D204D32
:10292000617374657200202D204E6F2066696E649D
:10293000005749464920474F5420495000574946BF
:102940004920444953434F4E4E4543540057494351
:102950004F4E4E45435400434C4F53454400434C67
:10296000002B49434C4F53454400434F4E4E454383
:102970005400414C4E454354454400414C440041B1
:102980004C002B4950442C00496E76616C696420E0
:10299000524649442D6C69737420435243210052BE
:1029A000656365697665206275666665722065781F
:1029B000636565646564212028004869743A0000F5
:1029C00031302E31312E32322E35300031302E3032
:1029D0002E302E33003139322E3136382E302E3310
:1029E00030003139322E3136382E312E323000005F
:1029F0004D4A522D536B6C6164004E45544745411E
:102A000052004B736C6966740064696D61696200A1
:102A10004461627544614465003131313232323390
:102A20003333343434004130433442303936443463
:102A30000032333039383844564700000D911D912B
:102A40002D913C910F5F1F4F2F4F3F4F3C932E9383
:102A50001E930E930895ED91FC91EF5FFF4FFC9351
:102A6000EE9308958F938D918823E9F711978F91B5
:102A70000895A4E2B0E18D91882311F00CD0FBCF32
:102A800008950E940D16802D11F005D0FACF0895FB
:102A90008DE001D08AE05D9BFECF8CB90895A4E261
:102AA000B0E18D91882311F00CD0FBCF08950E94E6
:102AB0000D16802D11F005D0FACF08958DE001D0CC
:102AC0008AE000909B0005FEFCCF80939C00089557
:102AD000042B152B262B372B08950423152326238F
:102AE000372308953197F1F70895689462F80895AF
:102AF000E89462F808958F939F938BEB90E0019791
:102B0000F1F79F918F91089580952AE090E00894C5
:102B100010F4979802C0979A0000EDDFECDF9695CD
:102B200087952A95A9F708950E940D16802D11F01A
:102B3000EBDFFACF08958DE0E7DF8AE0E5CF8D91F6
:102B4000E3DF3A95E1F70895EF93FF93EE27E82B43
:102B5000E92B31F0E6E6FEE03197F1F70197D1F786
:102B6000FF91EF9108959FEF8FEF01960D91002354
:102B7000E1F70895199109917191772359F001971F
:102B8000D9F7319781918D930150104019F0882326
:102B9000C9F7089588278D9308950D911D912D9162
:102BA0003C910895019111912191308108953C93B8
:102BB0002E931E930E93089599275A924A92480E87
:102BC000591E08950E940D160D920020D9F7089500
:102BD000903051F00E94CD15000F111F221F331F9E
:102BE0009A95D1F70C94D7150895903041F00D9136
:102BF0001C91169507959A95E1F71C930E930895ED
:102C0000903051F00E94CD15369527951795079570
:102C10009A95D1F70C94D7150895D895319628F444
:102C20008F938BB783958BBF8F910020089501966A
:102C3000019721F00E940D16E9F7FACF089591E06F
:102C4000882321F08894991F8A95E9F7892F909518
:102C5000089580E30EF4839508950181082B018384
:102C6000128119231283EF93FF93E2E1F0E00E94B7
:102C70007215FF91EF9108950E947815FF270E9429
:102C80001F16EBDFEF93FF93E6EEF6E00E9472155E
:102C9000FF91EF91182B128309230183EF93FF9388
:102CA000EEEFF0E00E947215FF91EF911081182372
:102CB00011F00E947515EF93FF93E4EEF5E00E948A
:102CC0007215FF91EF9108950E941F16FF2721E0D2
:102CD00048E006C00E941F16FF2729915D9148E039
:102CE000BCDF579510F4182B1283EF93FF93E3EC9E
:102CF000F0E00E947215FF91EF91182B1283EF9371
:102D0000FF93E1E2F0E00E947215FF91EF914A9586
:102D100039F72A9519F708950E941F16FF27299160
:102D200048E055279ADF09230183EF93FF93EDE1F4
:102D3000F0E00E947215FF91EF91889410811823A2
:102D400009F008945795EF93FF93E7ECF0E00E94A9
:102D50007215FF91EF914A9529F75D932A9501F736
:102D600008950F9301E00BBF0F91889408950F937E
:102D70000027F9CF0F9302E0F6CF040F151F261F8F
:102D8000371F089504171507260737070895000F02
:102D9000111F221F331F089500951095209530951F
:102DA0000F5F1F4F2F4F3F4F0895019110810FC0AC
:102DB0000E94D2150EC00E94D21510C00191108140
:102DC00017FF05C03FEF2FEF04C000811127222716
:102DD000332737FF03C0E0DF8DE28D93CF92DF9280
:102DE000EF92AA24BB24CC24DD24EE2440E2EAE0C6
:102DF000FF2755E093E38081890F87FD9F7083FD56
:102E0000907F891B81935A95A9F7C1DFAA1CBB1C2F
:102E1000CC1CDD1CEE1C4A9551F7E894EFE0FF272F
:102E200082910CD0EB30E0F71EF068948A2D0AD026
:102E300088278D93EF90DF90CF900895982F8295FB
:102E400001D0892F8F70805D26F0803309F40895BA
:102E500068948D93089541E003C042E001C044E0CE
:102E6000E40F8827F81F8291982F829506D0892F2A
:102E700004D04A95C1F70C9444178F708A3008F03B
:102E8000895F805D8D93089588278D930895819142
:102E90008D938823E1F70895E199FECFEEBBFFBB48
:102EA0003196089591E001C092E07B3751F47FB7ED
:102EB000F894F2DF8D918DBBE29AE19A9A95C9F769
:102EC0007FBF7727089591E001C092E0E5DFE09AA7
:102ED0008DB38D939A95D1F70895689401C0E894C5
:102EE000AF93BF938D9116F0919103C00E940D1680
:102EF000902D891718F011F48823A1F7BF91AF9195
:102F000008953A0049443A002B2B2B0065006200DB
:102F1000200020436F6E6E6563743D00205B0000EF
:102F20005D006100630064002B4950442C000000E8
:102F30004352433D000020204352435F73756D3D73
:102F400000002020506F726F675F583D0000202006
:102F5000506F726F675F5A3D00004E657720706F4B
:102F6000726F672073617665642E2E2E00004552C5
:102F7000524F5221204E657720706F726F67206923
:102F800073207A65726F2E2E2E00506F726F67203D
:102F90003D20506F726F675F456570726F6D000006
:102FA00035303000290020202A2020002C00660027
:102FB0005B0053656E6420706F726F6720696E20CE
:102FC000616363656C20582026205A20000020266B
:022FD0002000DF
:00000001FF
