:1000000012C0189518951895189518951895189563
:100010001895189518951895189518951895189578
:100020001895189518958FE58DBFC8E3E0E24E2E20
:1000300084E08EBFD4E0F4E05F2EA89584B7082E4C
:10004000877F84BF88E1992781BD91BDEEEFF3E002
:10005000A0E6B0E088278D933197E9F783E389B96B
:1000600080E080BD88E18AB96624A09AA89AA19A06
:10007000A6E6B0E0BA93AA9321D0229640E050E0E1
:1000800060E070E0A6E6B0E00D911D912D913C91ED
:1000900076D114F009F001C002C0A99A01C0A99854
:1000A000ECE4F4E0ADD0E6E6F0E0A8E0B4E07DD129
:1000B000B1D0ACD082E390E0B5D0DACF80E08093CD
:1000C000610000E010E020E030E0A2E6B0E00D9337
:1000D0001D932D933C9380E08093600081E080939A
:1000E0006000009160000A3010F009F011C082E059
:1000F000E0E3DDD062FA0EF401C00AC08AE090E0CD
:1001000091D0A0E6B0E08C918F5F8C9308F4E9CF9A
:10011000009160000B3008F03FC053E382E0E0E361
:10012000E8D081E08093600000916000083010F01A
:1001300009F032C0BB27A6E182E0E0E321E02A9388
:10014000FCD0A1E6B0E05C9300916000043010F0B8
:1001500009F001C017C098E0A2E6B0E081D0A2E6A5
:10016000B0E00D911D912D913C91A1E6B0E04C9134
:100170005527662777271DD0A2E6B0E00D931D9383
:100180002D933D9381E090E04DD0A0E6B0E08C91BE
:100190008F5F8C9308F4C8CFA2E6B0E00D911D915B
:1001A0002D913C91A881B9810D931D932D933C9382
:1001B0000895042B152B262B372B08953197F1F733
:1001C0000895689462F80895E89462F808958F930A
:1001D0009F9383E690E00197F1F79F918F910895A7
:1001E00080952AE090E0089410F4A89802C0A89A9C
:1001F0000000EDDFECDF969587952A95A9F7089525
:100200003AD0802D11F0ECDFFBCF08958DE0E8DFD0
:100210008AE0E6CFA8E0B4E08D91882311F0E0DF1A
:10022000FBCF0895EF93FF93EE27E82BE92B31F0F6
:10023000E0EDF7E03197F1F70197D1F7FF91EF91FA
:1002400008950D911D912D913C9108950191119169
:100250002191308108953C932E931E930E9308951F
:10026000903041F0EEDF000F111F221F331F9A95CF
:10027000D1F7F1CF0895C89531960020089591E007
:10028000882321F08894991F8A95E9F7892F909502
:1002900008950181082B0183128119231283EF93A2
:1002A000FF93E8E0F0E08ADFFF91EF9108958CDFA3
:1002B000FF27E5DFEEDFEF93FF93ECEBF3E07EDF6C
:1002C000FF91EF91182B128309230183EF93FF9382
:1002D000E8E8F0E073DFFF91EF911081182309F057
:1002E00070DFEF93FF93E0E3F3E068DFFF91EF91BE
:1002F0000895C5DFFF2721E048E005C0C0DFFF27E4
:1003000029915D9148E0C5DF579510F4182B1283B1
:10031000EF93FF93E8E6F0E051DFFF91EF91182BA8
:100320001283EF93FF93E0E1F0E048DFFF91EF915C
:100330004A9549F72A9529F70895A1DFFF272991C2
:1003400048E05527A6DF09230183EF93FF93EEE0F2
:10035000F0E034DFFF91EF9188941081182309F0C9
:1003600008945795EF93FF93EAE6F0E027DFFF91BB
:10037000EF914A9539F75D932A9511F7089504177F
:100380001507260737070895000F111F221F331F77
:10039000089500951095209530950F5F1F4F2F4FB2
:1003A0003F4F0895019110810DC050DF0DC04EDF09
:1003B00010C00191108117FF05C03FEF2FEF04C05F
:1003C000008111272227332737FF03C0E2DF8DE2A8
:1003D0008D93CF92DF92EF92AA24BB24CC24DD240C
:1003E000EE2440E2EAE0FF2755E093E38081890FA5
:1003F00087FD9F7083FD907F891B81935A95A9F794
:10040000C3DFAA1CBB1CCC1CDD1CEE1C4A9551F79B
:10041000E894EFE0FF2782910CD0EB30E0F71EF07C
:1004200068948A2D0AD088278D93EF90DF90CF9023
:100430000895982F829501D0892F8F70805D26F0C6
:10044000803309F4089568948D9308955246494481
:060450005F4355523D0020
:00000001FF
