:100000000C94460018950000189500001895000003
:10001000189500001895000018950000189500002C
:10002000189500001895000018950000189500001C
:1000300018950000189500000C94D50E1895000036
:1000400018950000189500001895000018950000FC
:1000500018950000189500001895000018950000EC
:1000600018950000189500001895000018950000DC
:1000700018950000189500000C940D0718950000C5
:100080001895000018950000189500008FEF8DBF9F
:10009000C0EBECE34E2E80E18EBFD0E1F0E15F2EAD
:1000A000A89584B7082E877F84BF88E1992781BDF2
:1000B00091BDEEEFFFE0A0E0B1E088278D9331978E
:1000C000E9F787E089B980E08093900088E18AB9F8
:1000D00080E08093980087E08093990088E1809386
:1000E0009A0066248F9A979A8C9AD39AD49AD59A22
:1000F000D69ABC9A889A949A1598189A87E0809311
:10010000990080E08093980070919B007D7F7093B0
:100110009B0086E080939D0088E180939A00DB9AA3
:1001200088EC90E00E947C16DB98DC9A88EC90E0EA
:100130000E947C16DC98DD9A88EC90E00E947C1688
:10014000DD98DE9A88EC90E00E947C16DE98709133
:1001500002017F7770930201709102017F7B70939F
:100160000201709102017F7D7093020180E090E0B6
:10017000A3E0B1E08D939C9380E08093B80988E27E
:100180008093B5098FE08093B60988EC8093B70916
:1001900081E08093B9090091B909013011F00C9404
:1001A000FB00A42DB52DE8EDF0E30E948D170E9411
:1001B000BA16E7E0F0E0D2017BE70E943918A42DDF
:1001C000B52DE2EEF0E30E948D170E94BA16E6E22A
:1001D000F0E0D2017BE70E9439188AE080931B058A
:1001E0008BE080931C0586E180931D0582E380935C
:1001F0001E050C9489010091B909023011F00C948C
:100200002B01A42DB52DECEEF0E30E948D170E947A
:10021000BA16E7E0F0E0D2017BE70E943918A42D7E
:10022000B52DE4EFF0E30E948D170E94BA16E6E2C6
:10023000F0E0D2017BE70E94391880EC80931B0527
:1002400088EA80931C0580E080931D058AE48093F2
:100250001E050C9489010091B909033011F00C942A
:100260005B01A42DB52DE2E0F1E30E948D170E9401
:10027000BA16E7E0F0E0D2017BE70E943918A42D1E
:10028000B52DEAE0F1E30E948D170E94BA16E6E26E
:10029000F0E0D2017BE70E94391880EC80931B05C7
:1002A00088EA80931C0580E080931D0585E2809399
:1002B0001E050C9489010091B909043011F00C94C9
:1002C0008901A42DB52DE6E1F1E30E948D170E946E
:1002D000BA16E7E0F0E0D2017BE70E943918A42DBE
:1002E000B52DEEE1F1E30E948D170E94BA16E6E209
:1002F000F0E0D2017BE70E94391880EC80931B0567
:1003000088EA80931C0580E080931D0585E2809338
:100310001E05E7E0F0E0ADEDB4E09EE10E944E186E
:10032000E6E2F0E0ACEFB4E09EE10E944E18E1E0BE
:10033000F0E0ABE1B5E07BE70E942818E2E0F0E0F6
:10034000ACE1B5E07BE70E942818E3E0F0E0ADE126
:10035000B5E07BE70E942818E4E0F0E0AEE1B5E00C
:100360007BE70E942818E5E0F0E005E01DE0A0E151
:10037000BB277BE70E942A18E5E0F0E0AFE1B5E09B
:100380000E944618A1E2B5E088278C93A2E0B1E074
:100390008C9186FB81E00EF080E08F93A2E0B1E0CB
:1003A0008C9185FB81E00EF080E09F91892388236A
:1003B00011F40C94EC01E2E0F1E0ACEDB4E00E9449
:1003C0004418ACEDB4E08C9180FBABEAB5E08C91C5
:1003D00082F98C930C94F1017091AB057B7F709343
:1003E000AB0582E18093DC04E0E0F0E0ACEDB4E04A
:1003F0007BE70E94281800E010E020E030E0A6ED46
:10040000B4E00D931D932D933C9381E08093870579
:100410000E94C60F83E886B980E487B9379A80E0E6
:100420008FBD84E08EBDE2E1F9E20E948D1780E08D
:1004300090E00E94ED16A4E2B0E10E94BA160E947C
:1004400021160E943016E2E1F9E20E948D1781E048
:1004500090E00E94ED16A4E2B0E10E94BA160E945C
:1004600021160E943016E2E1F9E20E948D1780E029
:1004700090E00E94ED16A4E2B0E10E94BA160E943C
:1004800021160E943016E2E1F9E20E948D1782E007
:1004900090E00E94ED16A4E2B0E10E94BA160E941C
:1004A00021160E943016E2E1F9E20E948D1783E0E6
:1004B00090E00E94ED16A4E2B0E10E94BA160E94FC
:1004C0002116ECEDF4E0A4E2B0E10E94BB170E941B
:1004D00021160E943016E2E1F9E20E948D1784E0B5
:1004E00090E00E94ED16A4E2B0E10E94BA160E94CC
:1004F0002116EBE1F5E0A4E2B0E10E94BB170E94F7
:100500002116E8E2F1E30E948D170E942916ECE122
:10051000F5E0A4E2B0E10E94BB170E942116E8E2D8
:10052000F1E30E948D170E942916EDE1F5E0A4E2A7
:10053000B0E10E94BB170E942116E8E2F1E30E949D
:100540008D170E942916EEE1F5E0A4E2B0E10E94C9
:10055000BB170E942116EAE2F1E30E948D170E9468
:100560002916EFE1F5E0A4E2B0E10E94AB170E948A
:1005700021160E943016E2E1F9E20E948D1785E013
:1005800090E00E94ED16A4E2B0E10E94BA160E942B
:100590002116ADEDB4E00E9423160E943016E2E170
:1005A000F9E20E948D1786E090E00E94ED16A4E229
:1005B000B0E10E94BA160E942116ACEFB4E00E948E
:1005C00023160E943016ECE2F1E30E948D170E9480
:1005D0002916ECEDF4E0A4E2B0E10E94BB170E9402
:1005E00021160E94301688EC90E00E947C167091D3
:1005F0009A00706870939A0078940E94200F0E946D
:10060000541480E090E0A1ECB7E08D939C9377B711
:10061000746077BF81E090E0A3EDB4E08D939C938C
:10062000A3EDB4E00D911C91083250E015071CF0C9
:1006300011F00C943C03E3EDF4E0A190B190EAE4F6
:10064000F0E0AA0CBB1CAA0CBB1CEA0DFB1DA3ED21
:10065000B4E0AD90BD90A7E2B4E0AA0CBB1CAA0C1C
:10066000BB1CAA0DBB1D94E00E944718A3EDB4E08B
:100670000E9413160C941003A1E2B5E00E948B16A1
:10068000082F192F003050E0150718F011F00C94C6
:100690004B030C947A0381E090E0A3EDB4E08D93DA
:1006A0009C93A1E2B5E00E948B16482F592FA3ED31
:1006B000B4E00D911C91041715071CF011F00C9477
:1006C0007A0381E090E0E1E2F5E001E010E00A93D6
:1006D0001A93A7E9B2E00E949216A7E9B2E0BA9392
:1006E000AA930E9456102296A3EDB4E00E9413161E
:1006F0000C9451030091DA04003018F011F00C94BE
:1007000083030C941F04AAEDB4E08C918F5F8C934B
:10071000ABE3B0E00C9105FB81E00EF080E08F933D
:100720000091DA04063081E009F080E09F9189238E
:10073000882311F40C94FB03EAEEF9E20E948D1772
:100740008CE090E00E94ED16A3EBB5E00E94BA1693
:10075000EDECF7E0A3EBB5E00E941A160E94AE178D
:10076000A3EBB5E00E941A16EAE2F1E30E948D17AE
:100770000E94BA16ABEAB5E08C9182FBA3EBB5E020
:100780000E941A160E94FF168D9388278C93ECE81E
:10079000F9E20E948D1786E090E00E94ED16A4E237
:1007A000B0E10E94BA160E943716A3EBB5E00E9492
:1007B0008B16082F192FE0E1F0E0A4E2B0E10E94CF
:1007C000AB170E9437160E94461684E690E00E94FE
:1007D0007C16A3EBB5E00E9439160E9446168EE106
:1007E00090E00E947C16E0E3F1E30E948D170E94E6
:1007F0003F160E9446164091B6090091DA0404178C
:1008000018F011F00C9406040C941F0480E08093FF
:10081000DA04709102017F7E70930201A2E0B1E0E0
:100820008C9183FB16F00C941F04A1E2B5E00E94AA
:100830001A16E4E3F1E30E948D170E94BA160091A4
:10084000DB04003018F011F00C9428040C944C04D4
:10085000ABEDB4E08C918F5F8C934091B509009122
:10086000DB04041718F011F00C9438040C944C04B9
:100870000E94200F80E08093DB0470910201777F5B
:1008800070930201A1E2B5E00E941A16E6E3F1E3DB
:100890000E948D170E94BA16ADEBB7E00D911C9126
:1008A000053050E0150781E008F080E08F93ABEA57
:1008B000B5E08C9182FB81E00EF480E09F9189236A
:1008C0008F93A2E0B1E08C9185FB81E00EF080E097
:1008D0009F918923882311F40C941A0584E690E0F3
:1008E0000E947C16ADEBB7E00D911C91053050E0F5
:1008F000150710F00C941A057091AB057460709395
:10090000AB05A2E0B1E08C9186FB16F00C9491044B
:10091000E2E0F1E0A0E1BB2781E08C937BE70E945D
:100920002818A3ECB7E00E941316EAEEF9E20E9441
:100930008D1786E190E00E94ED16A4E2B0E10E94DE
:10094000BA160E942116E1ECF7E0A4E2B0E10E94A1
:10095000AB170E942116E8E3F1E30E948D170E9475
:100960002916EFEBF7E0A4E2B0E10E94AB170E947A
:1009700021160E943016EAEEF9E20E948D178CE0F3
:1009800090E00E94ED16ACE8B5E00E94BA16EFECDC
:10099000F4E0ACE8B5E00E941A160E94AE17ACE88D
:1009A000B5E00E941A16EAE2F1E30E948D170E9458
:1009B000BA16ABEAB5E08C9182FBACE8B5E00E94D8
:1009C0001A160E94FF168D9388278C93ECE8F9E2A3
:1009D0000E948D1786E090E00E94ED16A4E2B0E13F
:1009E0000E94BA160E943716ACE8B5E00E948B163A
:1009F000082F192FE0E1F0E0A4E2B0E10E94AB176C
:100A00000E9437160E94461688EC90E00E947C16E1
:100A1000ACE8B5E00E9439160E9446168EE190E0DF
:100A20000E947C16E0E3F1E30E948D170E943F16BE
:100A30000E944616ABEAB5E08C9182FB81E00EF095
:100A400080E08F93A2E0B1E08C9185FB81E00EF015
:100A500080E09F918923882311F40C943D058BB38A
:100A600098E089278BBBA2E0B1E08C9187FB16F060
:100A70000C943B05C4980C944605ABEAB5E08C9108
:100A800083FBABE3B0E08C9183F98C93A6EDB4E0EB
:100A90000E940616A7EBB9E04C91552766277727E9
:100AA000A6EDB4E00D911D912D913C910E949817F7
:100AB0001CF011F00C945E050C9460050E94200F50
:100AC000AAE6B7E088278C93AFECB4E0BA93AA9378
:100AD0000E9481132296ABEBB7E00E94131640E010
:100AE00050E060E070E0AFECB4E00D911D912D910D
:100AF0003C910E9498171CF011F00C9481050C9405
:100B0000BD06DE9A80E090E0A7E6B7E08D939C9367
:100B10000E94541481E090E0A3EDB4E08D939C9387
:100B2000A3EDB4E00D911C91083250E015071CF0C4
:100B300011F00C94BE05A3EDB4E0AD90BD90A7E21A
:100B4000B4E0AA0CBB1CAA0CBB1CAA0DBB1D4D918A
:100B50005D916D917C91AFECB4E00D911D912D9163
:100B60003C910E94981711F00C94B8050C94BE05A6
:100B7000A3EDB4E00E9413160C94900580E090E081
:100B8000ABEBB7E08D939C93A3EDB4E00D911C917A
:100B9000033250E0150780E00CF481E08F93ABEA5C
:100BA000B5E08C9182FB81E00EF480E09F91892377
:100BB000882311F40C940306EAEEF9E20E948D17E3
:100BC00087E190E00E94ED16AAE6B7E00E941A16AF
:100BD0000E94BA16DD9AC49A80E090E0ABEBB7E0D1
:100BE0008D939C93AFECB4E00D911D912D913C91B0
:100BF000ADECB7E00D931D932D933C9380E0809373
:100C0000B8090C948306A3EDB4E00D911C91023257
:100C100050E0150780E014F009F081E08F93A3ED18
:100C2000B4E00D911C91093250E0150780E00CF4FE
:100C300081E09F918923882311F40C946406EAEEE5
:100C4000F9E20E948D1788E190E00E94ED16AAE675
:100C5000B7E00E941A160E94BA168BB390E2892759
:100C60008BBBC49A80E090E0ABEBB7E08D939C9394
:100C700080E090E0A1ECB7E08D939C937091AB0580
:100C80007B7F7093AB05A2E0B1E08C9186FB16F000
:100C90000C945306E2E0F1E0A0E1BB2780E08C93E6
:100CA0007BE70E942818AFECB4E00D911D912D91C7
:100CB0003C91ADECB7E00D931D932D933C9380E0F8
:100CC0008093B8090C9483060091B8090E3F10F484
:100CD0000C947E06C498DD9880E090E0ABEBB7E022
:100CE0008D939C9300E010E020E030E0ADECB7E0A5
:100CF0000D931D932D933C930C948306A8EBB9E0C0
:100D00008C918F5F8C93A9E6B7E08C918F5F8C9369
:100D100000916907073018F011F00C9491060C94BB
:100D2000BB0680E080936907AAE6B7E00E9423161D
:100D3000EAE3F1E30E948D170E942916E1ECF7E047
:100D4000A4E2B0E10E94AB170E942116ECE3F1E3AC
:100D50000E948D170E942916ABEAB5E08C9183FBA7
:100D6000A4E2B0E10E94FF168D9388278C930E9425
:100D700021160E9430160C94F406A7E6B7E00E94F4
:100D80001316A7E6B7E00D911C91033050E015074C
:100D90001CF011F00C94CE060C94D506DE9880E081
:100DA00090E0A7E6B7E08D939C93ABEBB7E00D9195
:100DB0001C91083C50E015071CF011F00C94E20661
:100DC0000C94F406C498DD9880E090E0ABEBB7E0BB
:100DD0008D939C9300E010E020E030E0ADECB7E0B4
:100DE0000D931D932D933C93ABEBB7E00D911C91AC
:100DF000083C50E015071CF011F00C9401070C940E
:100E0000070780E090E0ABEBB7E08D939C9384E61E
:100E100090E00E947C160C943C030F921F922F923C
:100E20003F924F925F927F92AF92BF920F931F9328
:100E30002F933F934F935F936F937F938F939F93E2
:100E4000AF93BF93CF93DF93EF93FF938FB78F93BE
:100E50008BB78F9388278BBFA6E9B2E080919C0067
:100E60008C93A3E0B1E00D911C91003951E015077E
:100E700018F011F00C94910E81E00E94B4168AE0F3
:100E8000A881B9818D9388278C93A881B9814C91D1
:100E90000091960204170FB681E0481A80E0580AC4
:100EA00022960FBE81E009F080E08F93A5E0B1E0CB
:100EB0008C91803081E009F480E09F918923882320
:100EC00011F40C94B90D80E08093860581E0809345
:100ED0008705A5E0B1E00E942316E6E4F1E30E9455
:100EE0008D170E942916E3E0F1E0A4E2B0E10E9430
:100EF000AB170E942116EAE4F1E30E948D170E94CD
:100F000029160E94301681E00E94B416EAEEF9E23A
:100F10000E948D178AE190E00E94ED16A881B981A8
:100F20000E94BA16E881F981A5E0B1E00E945A1842
:100F30000FB681E0481A80E0580A22960FBE81E081
:100F400009F080E08F93A2E0B1E08C9181FB81E019
:100F50000EF480E09F918923882311F40C94C1073B
:100F6000A1E2B5E00E941A16ECE4F1E30E948D17AD
:100F70000E94BA16709102017260709302010C9483
:100F8000AD0D81E00E94B416EAEEF9E20E948D17E1
:100F90008BE190E00E94ED16A881B9810E94BA16FB
:100FA000E881F981A5E0B1E00E945A180FB681E00E
:100FB000481A80E0580A22960FBE81E009F080E0CE
:100FC0008F9381E00E94B416EAEEF9E20E948D1739
:100FD0008CE190E00E94ED16A881B9810E94BA16BA
:100FE000E881F981A5E0B1E00E945A180FB681E0CE
:100FF000481A80E0580A22960FBE81E009F080E08E
:101000009F91892B8F93A2E0B1E08C9180FB81E0CE
:101010000EF480E09F918923882311F40C94210819
:10102000A1E2B5E00E941A16E6E3F1E30E948D17F3
:101030000E94BA16709102017160709302010C94C3
:10104000AD0D81E00E94B416EAEEF9E20E948D1720
:101050008DE190E00E94ED16A881B9810E94BA1638
:10106000E881F981A5E0B1E00E945A180FB681E04D
:10107000481A80E0580A22960FBE81E009F080E00D
:101080008F9381E00E94B416EAEEF9E20E948D1778
:101090008EE190E00E94ED16A881B9810E94BA16F7
:1010A000E881F981A5E0B1E00E945A180FB681E00D
:1010B000481A80E0580A22960FBE81E009F080E0CD
:1010C0009F91892B8F9381E00E94B416EAEEF9E29A
:1010D0000E948D178FE190E00E94ED16A881B981E2
:1010E0000E94BA16E881F981A5E0B1E00E945A1881
:1010F0000FB681E0481A80E0580A22960FBE81E0C0
:1011000009F080E09F91892B8F93A2E0B1E08C9150
:1011100083FB81E00EF080E09F9189238F93ABEAFF
:10112000B5E08C9187FB81E00EF480E09F918923EC
:10113000882311F40C94AD08A1E2B5E00E941A16C0
:10114000EEE4F1E30E948D170E94BA167091AB0590
:1011500070687093AB050C94AD0D81E00E94B416DD
:10116000EAEEF9E20E948D1780E290E00E94ED160F
:10117000A881B9810E94BA16E881F981A5E0B1E0A1
:101180000E945A180FB681E0481A80E0580A229649
:101190000FBE81E009F080E08F9381E00E94B416D9
:1011A000EAEEF9E20E948D1781E290E00E94ED16CE
:1011B000A881B9810E94BA16E881F981A5E0B1E061
:1011C0000E945A180FB681E0481A80E0580A229609
:1011D0000FBE81E009F080E09F91892B8F9381E021
:1011E0000E94B416EAEEF9E20E948D1782E290E0C6
:1011F0000E94ED16A881B9810E94BA16E881F98192
:10120000A5E0B1E00E945A180FB681E0481A80E0CC
:10121000580A22960FBE81E009F080E09F91892B49
:101220008F9381E00E94B416EAEEF9E20E948D17D6
:1012300083E290E00E94ED16A881B9810E94BA165F
:10124000E881F981A5E0B1E00E945A180FB681E06B
:10125000481A80E0580A22960FBE81E009F080E02B
:101260009F91892B8F93ABEAB5E08C9186FB81E04F
:101270000EF480E09F918923882311F40C94510986
:10128000A1E2B5E00E941A16E0E5F1E30E948D1795
:101290000E94BA167091AB0570647093AB050C9404
:1012A000AD0D82E991E00E94B51681E090E0E5E0A5
:1012B000F1E005E010E00A931A93AA81BB810E9435
:1012C0009216A881B981E2E5F1E30E948D170E9490
:1012D00058180FB682E9481A81E0580A22960FBEC4
:1012E00081E009F080E08F93ABEAB5E08C9184FB5C
:1012F00081E00EF480E09F918923882311F40C94FF
:10130000AD0DA3E0B1E00D911C91083C50E0150734
:1013100011F00C94500DE5E0F1E0AAE9B2E00E9472
:101320001D187091AB057F7E7093AB05A2EDB5E003
:1013300088278C93A3E6B7E088278C9380E080937E
:10134000650780E080936607AAE9B2E00E948B16E9
:10135000082F192F053050E0150718F011F00C94E4
:10136000B3090C944E0D81E090E0A3EDB4E08D93B1
:101370009C93A3EDB4E00D911C910A3050E0150749
:101380001CF011F00C94F00982E991E00E94B5166E
:10139000A3EDB4E08D919C91EAE9F2E001E010E068
:1013A0000A931A93AA81BB810E949216A881B981DF
:1013B000EAE2F1E30E948D170E9458180FB682E905
:1013C000481A81E0580A22960FBE11F00C94EA09DF
:1013D0000C94F009A3EDB4E00E9413160C94B90923
:1013E000A3EDB4E00E941316A3EDB4E08D919C919F
:1013F000EAE9F2E00BE110E00A931A93A2EDB5E0FE
:101400000E949216AAE9B2E088278C9300E010E0CF
:1014100020E030E0A1EBB7E00D931D932D933C93BA
:1014200081E00E94B416EAEEF9E20E948D1789E08D
:1014300090E00E94ED16A881B9810E94BA16E88159
:10144000F981A2EDB5E00E945A180FB681E0481A62
:1014500080E0580A22960FBE11F00C944E0D00E069
:1014600010E020E030E0A9ECB7E00D931D932D9340
:101470003C9300E010E020E030E0A5ECB7E00D93F5
:101480001D932D933C93A5E0B1E00E9423160E948A
:10149000301681E090E0A3EDB4E08D939C93A3ED32
:1014A000B4E00D911C91093250E015071CF011F0C9
:1014B0000C94B70BA3EDB4E0AD90BD90A7E2B4E0FF
:1014C000AA0CBB1CAA0CBB1CAA0DBB1D0D911D9127
:1014D0002D913C91A1EBB7E00D931D932D933C937F
:1014E00098E1A1EBB7E00E94C916A1EBB7E00D911E
:1014F0001D912D913C91A8E8B5E00D931D932D937E
:101500003C93A3EDB4E0AD90BD90A7E2B4E0AA0C8B
:10151000BB1CAA0CBB1CAA0DBB1D0D911D912D91CE
:101520003C91A1EBB7E00D931D932D933C9398E074
:10153000A1EBB7E00E94C916A1EBB7E00D911D9198
:101540002D913C9140E050E06FEF70E00E94551605
:10155000A1EBB7E00D931D932D933D93A8E8B5E063
:101560000D911D912D913C91A1EBB7E04D915D91B5
:101570006D917C910E945016A8E8B5E00D931D93E3
:101580002D933D93A3EDB4E0AD90BD90A7E2B4E000
:10159000AA0CBB1CAA0CBB1CAA0DBB1D0D911D9156
:1015A0002D913C91A1EBB7E00D931D932D933C93AE
:1015B00098E0A1EBB7E00E94D616A1EBB7E00D9141
:1015C0001D912D913C9140E05FEF60E070E00E9442
:1015D0005516A1EBB7E00D931D932D933D93A8E80D
:1015E000B5E00D911D912D913C91A1EBB7E04D918E
:1015F0005D916D917C910E945016A8E8B5E00D9325
:101600001D932D933D93A3EDB4E0AD90BD90A7E263
:10161000B4E0AA0CBB1CAA0CBB1CAA0DBB1D0D91EF
:101620001D912D913C91A1EBB7E00D931D932D934E
:101630003C9398E1A1EBB7E00E94D616A1EBB7E08E
:101640000D911D912D913C914FEF50E060E070E0C5
:101650000E945516A1EBB7E00D931D932D933D937A
:10166000A8E8B5E00D911D912D913C91A1EBB7E05B
:101670004D915D916D917C910E945016A8E8B5E066
:101680000D931D932D933D93A3EDB4E00D911C910B
:10169000093250E015070CF402C00C94A50BA8E821
:1016A000B5E00D911D912D913C91A3EDB4E0AD906D
:1016B000BD90A7E2B4E0AA0CBB1CAA0CBB1CAA0DEF
:1016C000BB1D0D931D932D933C93EAE3F1E30E9420
:1016D0008D170E942916E3EDF4E0A190B190E7E2A6
:1016E000F4E0AA0CBB1CAA0CBB1CEA0DFB1DA4E277
:1016F000B0E10E94AE170E942116A8E8B5E00D9156
:101700001D912D913C914FE050E060E070E00E940F
:101710005516A1EBB7E00D931D932D933D93A9ECC6
:10172000B7E00D911D912D913C91A1EBB7E04D914A
:101730005D916D917C910E949317A9ECB7E00D9398
:101740001D932D933D930C94B10BA8E8B5E00D913A
:101750001D912D913C91A5ECB7E00D931D932D9318
:101760003C93A3EDB4E00E9413160C944F0AE8E5F5
:10177000F1E30E948D170E9429160E943016EAE5B7
:10178000F1E30E948D170E942916E5ECF7E0A4E230
:10179000B0E10E94AE170E942116E0E6F1E30E943C
:1017A0008D170E942916E9ECF7E0A4E2B0E10E944F
:1017B000AE170E9421160E943016A9ECB7E04D9199
:1017C0005D916D917C91A5ECB7E00D911D912D91EE
:1017D0003C910E94981781E009F080E08F9340E0EF
:1017E00050E060E070E0A5ECB7E00D911D912D9107
:1017F0003C910E94981780E014F009F081E09F91DD
:1018000089238F9340E050E060E070E0A9ECB7E0FE
:101810000D911D912D913C910E94981780E014F03C
:1018200009F081E09F918923882311F40C94280DFD
:1018300000E010E020E030E0A6EDB4E00D931D9351
:101840002D933C9381E090E0A3EDB4E08D939C93C5
:10185000A3EDB4E00D911C91083250E015071CF087
:1018600011F00C94670CE3EDF4E0A190B190EAE480
:10187000F0E0AA0CBB1CAA0CBB1CEA0DFB1DA1EBE3
:10188000B7E094E00E944718A3EDB4E0AD90BD909E
:10189000A7E2B4E0AA0CBB1CAA0CBB1CAA0DBB1D82
:1018A0004D915D916D917C91A1EBB7E00D911D91F2
:1018B0002D913C910E94981711F40C94610C0C949A
:1018C000670CA3EDB4E00E9413160C94280CA3ED52
:1018D000B4E00D911C91093250E015070CF402C0E0
:1018E0000C94B70C81E090E0A3EDB4E08D939C9351
:1018F000A3EDB4E00D911C91083250E015071CF0E7
:1019000011F00C94A50CE3EDF4E0A190B190EAE4A1
:10191000F0E0AA0CBB1CAA0CBB1CEA0DFB1DA3ED3E
:10192000B4E0AD90BD90A7E2B4E0AA0CBB1CAA0C39
:10193000BB1CAA0DBB1D94E07BE70E942B18A3EDF6
:10194000B4E00E9413160C94780CEAEEF9E20E94BF
:101950008D178AE090E00E94ED16A4E2B0E10E94AB
:10196000BA160E9421160E9430160C94C70CEAEE9B
:10197000F9E20E948D178BE090E00E94ED16A4E240
:10198000B0E10E94BA160E9421160E943016EAEEBB
:10199000F9E20E948D178CE090E00E94ED16A3EB17
:1019A000B5E00E94BA16EFECF4E0A3EBB5E00E94BC
:1019B0001A160E94AE17A3EBB5E00E941A16EAE2CF
:1019C000F1E30E948D170E94BA16ABEAB5E08C9144
:1019D00082FBA3EBB5E00E941A160E94FF168D93BE
:1019E00088278C93ECE8F9E20E948D1786E090E05E
:1019F0000E94ED16A4E2B0E10E94BA160E943716CA
:101A0000A3EBB5E00E948B16082F192FE0E1F0E060
:101A1000A4E2B0E10E94AB170E9437160E9446165E
:101A20008EE190E00E947C16A3EBB5E00E9439168F
:101A30000E9446168EE190E00E947C16E0E3F1E3FE
:101A40000E948D170E943F160E9446160C944E0D60
:101A5000EAEEF9E20E948D1785E290E00E94ED1611
:101A6000A4E2B0E10E94BA160E9421160E9430162C
:101A700000E010E020E030E0A1EDB7E00D931D9311
:101A80002D933C938EE190E00E947C16E0E3F1E31D
:101A90000E948D170E943F160E9446160C94AD0DB1
:101AA00081E08093D5040091D504083218F011F03C
:101AB0000C94950DE5EDF4E0A190BB24E7E2F4E091
:101AC000AA0CBB1CAA0CBB1CEA0DFB1DA4E2B0E1D6
:101AD0000E94AE170E942116EAE3F1E30E948D17DF
:101AE0000E942916E5EDF4E0A190BB24EAE4F0E0C1
:101AF000AA0CBB1CAA0CBB1CEA0DFB1DA5EDB4E097
:101B0000AD90BB24A7E2B4E0AA0CBB1CAA0CBB1C82
:101B1000AA0DBB1D94E00E944718A5EDB4E08C917E
:101B20008F5F8C9310F40C94530DE8E5F1E30E9461
:101B30008D170E9429160E943016EAEEF9E20E94E3
:101B40008D1785E290E00E94ED16A4E2B0E10E94BC
:101B5000BA160E9421160E943016A5E0B1E088272F
:101B60008C9380E090E0A3E0B1E08D939C930C9483
:101B70008F0E81E00E94B4168AE0A881B9818D930E
:101B800088278C93A881B9814C9100919602041703
:101B90000FB681E0481A80E0580A22960FBE11F471
:101BA0000C948F0EA3E0B1E00D911C91033250E034
:101BB000150780E010F009F081E08F93A2E0B1E01A
:101BC0008C9182FB81E00EF080E09F918923882335
:101BD00011F40C945C0E009187050A3210F00C94FD
:101BE0005A0E00918605003011F00C940B0E00E0A7
:101BF00010E020E030E0A7E8B5E0AD90BB24A7E21C
:101C0000B4E0AA0CBB1CAA0CBB1CAA0DBB1D0D93F7
:101C10001D932D933C93A6E8B5E08C918F5F8C9338
:101C2000A7E8B5E0AD90BB24A7E2B4E0AA0CBB1CCA
:101C3000AA0CBB1CAA0DBB1D0D911D912D913C91B1
:101C4000A6E9B2E04C915527662777270E945016E7
:101C5000A7E8B5E0AD90BB24A7E2B4E0AA0CBB1C9A
:101C6000AA0CBB1CAA0DBB1D0D931D932D933D9378
:101C700000918605033018F011F00C94410E0C947D
:101C80004B0E80E080938605A7E8B5E08C918F5FCE
:101C90008C930C945A0E98E0A7E8B5E0AD90BB2465
:101CA000A7E2B4E0AA0CBB1CAA0CBB1CAA0DBB1D6E
:101CB0000E94C9160C948B0E81E00E94B4168DE030
:101CC000A881B9818D9388278C93A881B9814C9183
:101CD0000091960204170FB681E0481A80E0580A76
:101CE00022960FBE11F40C94810EA6E9B2E08C91FD
:101CF000A5E0B1E00E941A168D9388278C930C946E
:101D00008B0EA3E0B1E00D911C9101501040A3E0B7
:101D1000B1E00D931C93A3E0B1E00E9413160C9464
:101D2000B70EEAEEF9E20E948D1786E290E00E947B
:101D3000ED16A4E2B0E10E94BA160E942116ECE66C
:101D4000F1E30E948D170E942916E0E7F1E30E945B
:101D50008D170E9429160E943016A5E0B1E0882751
:101D60008C9380E090E0A3E0B1E08D939C938F9101
:101D70008BBF8F918FBFFF91EF91DF91CF91BF917B
:101D8000AF919F918F917F916F915F914F913F9113
:101D90002F911F910F91BF90AF907F905F904F90C8
:101DA0003F902F901F900F9018950F921F922F9297
:101DB0003F924F925F927F92AF92BF920F931F9389
:101DC0002F933F934F935F936F937F938F939F9343
:101DD000AF93BF93CF93DF93EF93FF938FB78F931F
:101DE0008BB78F9388278BBF07B1007E016007B93F
:101DF0000E94C016ADEBB7E08D939C9380E395E70E
:101E00009DBD8CBD8F918BBF8F918FBFFF91EF9147
:101E1000DF91CF91BF91AF919F918F917F916F9102
:101E20005F914F913F912F911F910F91BF90AF9074
:101E30007F905F904F903F902F901F900F9018953C
:101E400000E010E020E030E0A6EDB4E00D931D933B
:101E50002D933C93DC98709102017B7F709302017B
:101E6000EAEEF9E20E948D1780E090E00E94ED1604
:101E7000A4E2B0E10E94BA160E9421160E94301618
:101E8000949884EF91E00E947C16949A84EF91E0FC
:101E90000E947C160E94C60FECE8F9E20E948D17A2
:101EA00080E090E00E94ED16A4E2B0E10E94BA1634
:101EB0000E9437160E94461688EC90E00E947C161D
:101EC000ECE8F9E20E948D1781E090E00E94ED16A7
:101ED000A4E2B0E10E94BA160E9437160E9446168C
:101EE00088EC90E00E947C16ECE8F9E20E948D17E5
:101EF00082E090E00E94ED16A4E2B0E10E94BA16E2
:101F00000E9437160E94461688EC90E00E947C16CC
:101F1000ECE8F9E20E948D1783E090E00E94ED1654
:101F2000A4E2B0E10E94BA160E9437160E9446163B
:101F300088EC90E00E947C16ECE8F9E20E948D1794
:101F400084E090E00E94ED16A4E2B0E10E94BA168F
:101F50000E9437160E94461688EC90E00E947C167C
:101F6000ADEDB4E0BA93AA93ACEFB4E0BA93AA9300
:101F70000E94FF0F24967091020174607093020119
:101F80007091AB05777F7093AB050895E5E4F0E0C1
:101F9000AFEBB7E00E944618E7E0F0E0ADEDB4E04B
:101FA0009EE10E944E18E6E2F0E0ACEFB4E09EE164
:101FB0000E944E18E1E0F0E0ABE1B5E00E94441869
:101FC000E2E0F0E0ACE1B5E00E944418E3E0F0E0CC
:101FD000ADE1B5E00E944418E4E0F0E0AEE1B5E028
:101FE0000E94441885E09DE0AFE1B5E08D939C939D
:101FF000E0E0F0E0ACEDB4E00E9444180895EAEEB1
:10200000F9E20E948D1781E090E00E94ED16A4E2B3
:10201000B0E10E94BA160E942116AA81BB810E94DB
:102020002316E2E7F1E30E948D170E942916A8818A
:10203000B9810E9423160E94301684EF91E00E941D
:102040007C16ECE8F9E20E948D1785E090E00E9492
:10205000ED16A4E2B0E10E94BA160E94371682E2A1
:102060000E944916AA81BB810E94391682E20E9411
:102070004916E8E7F1E30E948D170E943F1682E2BD
:102080000E944916A881B9810E94391682E20E94F5
:1020900049168DE00E9449168AE00E9449160E9466
:1020A000461688EE93E00E947C160895ACEAB5E0EF
:1020B00088278C9380E08093B205A3EBB5E0882756
:1020C0008C9300E010E020E030E0A6EDB4E00D934A
:1020D0001D932D933C93E0E0F0E0ACEDB4E00E9462
:1020E0004418A1E2B5E00E948B16082F192F013089
:1020F00050E0150718F011F00C9480100C948E101D
:1021000082E090E0E1E2F5E003E610E00A931A9342
:10211000A1E2B5E00E9492160C949210A1E2B5E003
:1021200088278C93A881B981ECE4F1E30E948D1794
:102130000E94581811F00C94CB10EAEEF9E20E94BC
:102140008D1782E090E00E94ED16A4E2B0E10E94BB
:10215000BA160E9421160E943016A1E2B5E00E9434
:102160001A16E4E3F1E30E948D170E94BA167091EB
:10217000020178607093020180E08093DB0470912B
:1021800002017D7F709302017091AB0578607093BE
:10219000AB050C948013E6E3F1E30E948D170E94D7
:1021A000581811F00C940611EAEEF9E20E948D170E
:1021B00083E090E00E94ED16A4E2B0E10E94BA161E
:1021C0000E9421160E943016DC98ADEDB4E0BA935F
:1021D000AA93ACEFB4E0BA93AA930E94FF0F24969F
:1021E00070910201777F70930201ABEDB4E08C91A6
:1021F0008F5F8C93709102017E7F709302017091CA
:10220000AB05777F7093AB050C948013EEE4F1E39C
:102210000E948D170E94581811F00C948211EBE166
:10222000F5E0A4E2B0E10E94BB170E942116E8E2AB
:10223000F1E30E948D170E942916ECE1F5E0A4E27B
:10224000B0E10E94BB170E942116E8E2F1E30E9470
:102250008D170E942916EDE1F5E0A4E2B0E10E949D
:10226000BB170E942116E8E2F1E30E948D170E943D
:102270002916EEE1F5E0A4E2B0E10E94BB170E944E
:102280002116EAE2F1E30E948D170E942916EFE180
:10229000F5E0A4E2B0E10E94AB170E942116EAEE3D
:1022A000F9E20E948D1784E090E00E94ED16A4E20E
:1022B000B0E10E94BA160E9421160E943016DC98E6
:1022C000A2E0B1E08C9183FB16F00C947111A1E2B5
:1022D000B5E00E941A16E4E3F1E30E948D170E9414
:1022E000BA16709102017F7E70930201ABEDB4E0EB
:1022F0008C918F5F8C937091AB057F777093AB055A
:102300000C948013E0E5F1E30E948D170E945818A9
:1023100011F00C947912EAEEF9E20E948D1785E033
:1023200090E00E94ED16A4E2B0E10E94BA160E946D
:102330002116EBE1F5E0A4E2B0E10E94BB170E9498
:102340002116E8E2F1E30E948D170E942916ECE1C4
:10235000F5E0A4E2B0E10E94BB170E942116E8E27A
:10236000F1E30E948D170E942916EDE1F5E0A4E249
:10237000B0E10E94BB170E942116E8E2F1E30E943F
:102380008D170E942916EEE1F5E0A4E2B0E10E946B
:10239000BB170E942116EAE2F1E30E948D170E940A
:1023A0002916EFE1F5E0A4E2B0E10E94AB170E942C
:1023B00021160E943016DC9A7091020170617093B0
:1023C000020180E08093DA0480E08093DB04709166
:1023D000AB057F7B7093AB05ACE8B5E088278C93A9
:1023E000EAEEF9E20E948D1786E090E00E94ED1679
:1023F000ACE8B5E00E94BA16ACE8B5E00E941A1647
:10240000EAE2F1E30E948D170E94BA16ECEDF4E0C7
:10241000ACE8B5E00E941A160E94BB17ACE8B5E024
:102420000E941A16E8E7F1E30E948D170E94BA167F
:10243000EFECF4E0ACE8B5E00E941A160E94AE178B
:10244000ACE8B5E00E941A16E8E7F1E30E948D17A8
:102450000E94BA16ABEAB5E08C9182FBACE8B5E01D
:102460000E941A160E94FF168D9388278C93ACE861
:10247000B5E00E941A16EAE2F1E30E948D170E946D
:10248000BA16EAEEF9E20E948D1786E090E00E940B
:10249000ED16ACE8B5E00E941A160E94BA16ECE8F8
:1024A000F9E20E948D1786E090E00E94ED16A4E20A
:1024B000B0E10E94BA160E943716ACE8B5E00E945F
:1024C0008B16082F192FE0E1F0E0A4E2B0E10E94A2
:1024D000AB170E9437160E94461688EC90E00E94C7
:1024E0007C16ACE8B5E00E9439160E9446160C94A2
:1024F0008013E4E3F1E30E948D170E94581811F055
:102500000C947713E1E0F0E0ABE1B5E00E944418F1
:10251000E2E0F0E0ACE1B5E00E944418E3E0F0E076
:10252000ADE1B5E00E944418E4E0F0E0AEE1B5E0D2
:102530000E944418E5E0F0E0AFE1B5E00E944618E3
:10254000EAEEF9E20E948D1787E090E00E94ED1616
:10255000A4E2B0E10E94BA160E942116EBE1F5E078
:10256000A4E2B0E10E94BB170E942116E8E2F1E369
:102570000E948D170E942916ECE1F5E0A4E2B0E17B
:102580000E94BB170E942116E8E2F1E30E948D171A
:102590000E942916EDE1F5E0A4E2B0E10E94BB172C
:1025A0000E942116E8E2F1E30E948D170E9429168D
:1025B000EEE1F5E0A4E2B0E10E94BB170E94211613
:1025C000EAE2F1E30E948D170E942916EFE1F5E09F
:1025D000A4E2B0E10E94AB170E9421160E943016BF
:1025E000DC9888EE93E00E947C16ECE8F9E20E9409
:1025F0008D1787E090E00E94ED16A4E2B0E10E9402
:10260000BA160E94371682E20E944916EAEEF9E2F3
:102610000E948D1788E090E00E94ED16A4E2B0E1E0
:102620000E94BA160E94371682E20E944916E8E715
:10263000F1E30E948D170E943F1682E20E94491624
:10264000EBE1F5E0A4E2B0E10E94BB170E9437166F
:10265000E8E2F1E30E948D170E943F16ECE1F5E0FD
:10266000A4E2B0E10E94BB170E943716E8E2F1E352
:102670000E948D170E943F16EDE1F5E0A4E2B0E163
:102680000E94BB170E943716E8E2F1E30E948D1703
:102690000E943F16EEE1F5E0A4E2B0E10E94BB1714
:1026A0000E94371682E20E944916E8E7F1E30E9491
:1026B0008D170E943F16EFE1F5E0A4E2B0E10E9421
:1026C000AB170E9437168DE00E9449168AE00E94DF
:1026D00049160E944616AAEDB4E08C918F5F8C9348
:1026E0007091AB057F7D7093AB050C948013EAE786
:1026F000F1E30E948D170E94581811F00C9480137A
:10270000089580E08093BA0700E010E020E030E018
:10271000A6EBB7E00D931D932D933C9380E080933F
:10272000B50781E08093B5070091B5070A3018F02E
:1027300011F00C94B11380E0E9E30E94121762FAE1
:1027400016F40C94A5130C94B11384E190E00E944C
:102750007C16A5EBB7E08C918F5F8C9310F40C94F2
:1027600094130091B5070B3010F00C94471453E309
:1027700080E0E9E30E943A17EAEEF9E20E948D1741
:1027800083E190E00E94ED16AAE6B7E00E94BA1637
:1027900081E08093B5070091B507083018F011F07B
:1027A0000C941D14BB27A6E180E0E9E321E02A9305
:1027B0000E946217AAEBB7E05C93AAE6B7E00E941A
:1027C0001A16EAEBF7E00E940118AAE6B7E00E94A9
:1027D0001A16EAE3F1E30E948D170E94BA160091DF
:1027E000B507043018F011F00C94F8130C94111480
:1027F00098E0A6EBB7E00E94C916A6EBB7E00D91F2
:102800001D912D913C91AAEBB7E04C91552766277D
:1028100077270E945016A6EBB7E00D931D932D93DA
:102820003D9381E090E00E947C16A5EBB7E08C918F
:102830008F5F8C9310F40C94CB13AAE6B7E00E9440
:102840001A16ECE7F1E30E948D170E94BA16EAEE21
:10285000F9E20E948D1784E190E00E94ED16AAE64D
:10286000B7E00E941A160E94BA16E6EBF7E0AAE655
:10287000B7E00E941A160E94AE17AAE6B7E00E94BF
:102880001A16EAE4F1E30E948D170E94BA16A6EB2D
:10289000B7E00D911D912D913C91A881B9810D93C7
:1028A0001D932D933C93089581E090E0A3EDB4E057
:1028B0008D939C93A3EDB4E00D911C91083250E0F0
:1028C00015071CF011F00C948614E3EDF4E0A190D0
:1028D000B190EAE4F0E0AA0CBB1CAA0CBB1CEA0D08
:1028E000FB1DA3EDB4E0AD90BD90A7E2B4E0AA0C4F
:1028F000BB1CAA0CBB1CAA0DBB1D94E00E94471870
:10290000A3EDB4E00E9413160C945A140895F894A1
:10291000FFCF2323232323232323232323232323FF
:1029200023232323232323230053797374656D20EA
:102930007374617274696E6700506172616D657461
:102940007273206465766963653A00696420646522
:10295000766963653D202300416472657320616E72
:102960006420706F7274207365727665723D20000A
:102970004E616D6520535349443A20005061737392
:10298000776F726420535349443A200041544530D4
:102990000041542B43574D4F44453D310041542B8A
:1029A0004349504D4F44453D300041542B4349501D
:1029B0004D55583D300041542B43574155544F43DA
:1029C0004F4E4E3D300041542B43574A41503D003D
:1029D00041542B43495053454E443D0041542B43F1
:1029E000495053544152543D000052657365742060
:1029F000616E642073657474696E672057692D4633
:102A000069206D6F64756C00436F6E6E6563742032
:102A1000535349443A2000526563697665642049FE
:102A2000502053534944004C6F737420636F6E6E93
:102A30006563742E205265636F6E6E6563742053F8
:102A40005349440020636F6E6E656374696F6E2036
:102A500062726F6B656E2100436F6E6E65637420EA
:102A6000007374617274004D616B65205443502D86
:102A7000636F6E6E656374696F6E206973200054B6
:102A8000435000524649445F4C6973745F666978ED
:102A900065645F6C656E5F626C61626C613A004E8A
:102AA0006577206C69737420524649442D636172C6
:102AB000642061646420696E20454550524F4D008A
:102AC00053656E6420627920524649442D6C6973C7
:102AD00074203D20454550524F4D2D6C6973740054
:102AE000526669645F6375723D0053657441503A84
:102AF0000053657449443A004E657720494420628A
:102B00006F6172643A2023004572726F72206964AB
:102B10003A200053657449503A004E657720495079
:102B2000207365727665723A200052464944203D12
:102B300020004C6F6E67203D20004E657720706F3F
:102B4000726F67206865743D0048697474696E67C8
:102B500020626F617264212056616C75653A2000B5
:102B6000202D205573657200202D204D61737465F2
:102B70007200202D204E6F2066696E640057494612
:102B80004920474F5420495000574946492044495D
:102B900053434F4E4E454354005749434F4E4E45C5
:102BA000435400434C4F53454400434C002B49438E
:102BB0004C4F53454400434F4E4E45435400414C07
:102BC0004E454354454400414C4400414C002B4980
:102BD00050442C00496E76616C6964205246494429
:102BE0002D6C6973742043524321005265636569FB
:102BF00076652062756666657220657863656564D2
:102C00006564212028004869743A00000D911D91E7
:102C10002D913C910F5F1F4F2F4F3F4F3C932E93B1
:102C20001E930E930895ED91FC91EF5FFF4FFC937F
:102C3000EE9308958F938D918823E9F711978F91E3
:102C40000895A4E2B0E18D91882311F00CD0FBCF60
:102C500008950E94E316802D11F005D0FACF089553
:102C60008DE001D08AE05D9BFECF8CB90895A4E28F
:102C7000B0E18D91882311F00CD0FBCF08950E9414
:102C8000E316802D11F005D0FACF08958DE001D024
:102C90008AE000909B0005FEFCCF80939C00089585
:102CA000042B152B262B372B0895042315232623BD
:102CB000372308953197F1F70895689462F80895DD
:102CC000E89462F808958F939F938BE090E00197CA
:102CD000F1F79F918F91089580952AE090E00894F4
:102CE00010F4979802C0979A0000EDDFECDF9695FC
:102CF00087952A95A9F70895EF93FF93EE27E82B80
:102D0000E92B31F0E6E6FEE03197F1F70197D1F7D4
:102D1000FF91EF9108959FEF8FEF01960D910023A2
:102D2000E1F70895199109917191772359F001976D
:102D3000D9F7319781918D930150104019F0882374
:102D4000C9F7089588278D9308950D911D912D91B0
:102D50003C910895019111912191308108953C9306
:102D60002E931E930E93089599275A924A92480ED5
:102D7000591E08950E94E3160D920020D9F7089578
:102D8000369A3699FECF369A3699FECF84B195B1F0
:102D90000895903051F00E94A516000F111F221FB8
:102DA000331F9A95D1F70C94AF160895903051F0D7
:102DB0000E94A51636952795179507959A95D1F7F0
:102DC0000C94AF160895D895319628F48F938BB74D
:102DD00083958BBF8F91002008950196019721F074
:102DE0000E94E316E9F7FACF089591E0882321F0D5
:102DF0008894991F8A95E9F7892F9095089580E323
:102E00000EF4839508950181082B01831281192303
:102E10001283EF93FF93E2E1F0E00E945A16FF91D4
:102E2000EF9108950E946016FF270E94F516EBDFD0
:102E3000EF93FF93E6EEF6E00E945A16FF91EF91B2
:102E4000182B128309230183EF93FF93EEEFF0E039
:102E50000E945A16FF91EF911081182311F00E94E1
:102E60005D16EF93FF93E4EEF5E00E945A16FF9192
:102E7000EF9108950E94F516FF2721E048E006C073
:102E80000E94F516FF2729915D9148E0BCDF579518
:102E900010F4182B1283EF93FF93E3ECF0E00E9401
:102EA0005A16FF91EF91182B1283EF93FF93E1E2F3
:102EB000F0E00E945A16FF91EF914A9539F72A9552
:102EC00019F708950E94F516FF27299148E0552724
:102ED0009ADF09230183EF93FF93EDE1F0E00E9475
:102EE0005A16FF91EF9188941081182309F00894E5
:102EF0005795EF93FF93E7ECF0E00E945A16FF918D
:102F0000EF914A9529F75D932A9501F708950F935C
:102F100001E00BBF0F91889408950F930027F9CF1C
:102F20000F9302E0F6CF040F151F261F371F0895D9
:102F300004171507260737070895000F111F221FD2
:102F4000331F089500951095209530950F5F1F4F02
:102F50002F4F3F4F0895019110810FC00E94AA1674
:102F60000EC00E94AA1610C00191108117FF05C063
:102F70003FEF2FEF04C0008111272227332737FFAF
:102F800003C0E0DF8DE28D93CF92DF92EF92AA240F
:102F9000BB24CC24DD24EE2440E2EAE0FF2755E008
:102FA00093E38081890F87FD9F7083FD907F891B4C
:102FB00081935A95A9F7C1DFAA1CBB1CCC1CDD1C50
:102FC000EE1C4A9551F7E894EFE0FF2782910CD070
:102FD000EB30E0F71EF068948A2D0AD088278D9395
:102FE000EF90DF90CF900895982F829501D0892F90
:102FF0008F70805D26F0803309F4089568948D9376
:10300000089541E003C042E001C044E0E40F882796
:10301000F81F8291982F829506D0892F04D04A9567
:10302000C1F70C941A188F708A3008F0895F805DA0
:103030008D93089588278D93089581918D9388238A
:10304000E1F70895E199FECFEEBBFFBB31960895FD
:1030500091E001C092E07B3751F47FB7F894F2DF42
:103060008D918DBBE29AE19A9A95C9F77FBF772738
:103070000895E8DF8D917B3729F48DBBE29AE19AC0
:103080008823B9F77727089591E001C092E0DADF4D
:10309000E09A8DB38D939A95D1F70895D3DFE09A96
:1030A0008DB38D93882319F09A95C1F79D93089558
:1030B000689401C0E894AF93BF938D9116F09191FD
:1030C00003C00E94E316902D891718F011F488238D
:1030D000A1F7BF91AF9108954D4A522D536B6C618A
:1030E0006400446162754461446500004E45544784
:1030F000454152003131313232323333333434349A
:1031000000006B736C6966740000413043344230D8
:1031100039364434000064696D61696200003233FD
:1031200030393838445647002E003A0049443A00B6
:103130002B2B2B00650062002F00200020436F6EB8
:103140006E6563743D00205B00005D0061006300FC
:1031500064002B4950442C0000004352433D0000C2
:1031600020204352435F73756D3D000034303000C2
:0E317000290020202A2020002C0066005B0091
:00000001FF
