:1000000012C0189518951895189518951895189563
:100010001895189518951895189518951895189578
:100020001895189518958FE58DBFC8E3E0E24E2E20
:1000300084E08EBFD4E0F4E05F2EA89584B7082E4C
:10004000877F84BF88E1992781BD91BDEEEFF3E002
:10005000A0E6B0E088278D933197E9F788E089B969
:1000600080E080BD88E18AB972E07BB966248A9A13
:100070008B9A86E886B980E487B9379ABC9AC49A85
:1000800088E089B980E080BD599A88E18AB986E81C
:1000900080BD80E08FBD84E08EBD81E080938000D4
:1000A00000918000013009F00DC084E690E0ACE7DB
:1000B000B0E08D939C9380E991E0AEE7B0E08D9342
:1000C0009C9323C000918000023009F00DC080E0B5
:1000D00090E0ACE7B0E08D939C9380E090E0AEE7D9
:1000E000B0E08D939C9311C000918000033009F023
:1000F0000CC080E090E0ACE7B0E08D939C9380E092
:1001000090E0AEE7B0E08D939C9381E08093870010
:10011000009187000A3010F009F099C007B1007F04
:1001200007B998D2A2E6B0E08D939C9307B1007F07
:10013000076007B98FD2A4E6B0E08D939C9307B116
:10014000007F016007B986D2A6E6B0E08D939C934C
:10015000A2E6B0E00D911D9117FB1EF42FEF3FEFCB
:1001600002C02227332742E050E060E070E089D1EE
:10017000AEE6B0E00D931D932D933D93A4E6B0E061
:100180000D911D9117FB1EF42FEF3FEF02C02227A8
:10019000332742E050E060E070E073D1A2E7B0E0C6
:1001A0000D931D932D933D93A6E6B0E00D911D9107
:1001B00017FB1EF42FEF3FEF02C02227332742E048
:1001C00050E060E070E05DD1A6E7B0E00D931D93D4
:1001D0002D933D93AEE6B0E00D911C91A2E7B0E007
:1001E0004D915C91040F151FAAE7B0E00D931C938D
:1001F000AAE7B0E00D911C91A6E7B0E04D915C91AB
:10020000040F151FAAE7B0E00D931C93AAE7B0E016
:100210009ED2AAE7B0E04D935C93A3E8B0E00D91C5
:100220001D912D913C91AAE7B0E04D915C9166271C
:10023000772721D2A3E8B0E00D931D932D933D9332
:10024000A7E8B0E08C918F5F8C9308F461CFA3E8AE
:10025000B0E00D911D912D913C914AE050E060E09D
:1002600070E039D1A3E8B0E04D935D936D937D9339
:1002700069D08AE090E0B7D1ACE7B0E04D915C91F5
:10028000AAE7B0E00D911C910417150710F009F0D2
:1002900005C080E090E09DBD8CBD34C0AEE7B0E00D
:1002A0004D915C91ACE4B0E00D911C9104171507E1
:1002B00010F009F001C026C0EAE7F0E0A8E0B4E0E1
:1002C000EDD189D1EEE9F7E07CD1ECE4F0E0A8E0F3
:1002D000B4E0E4D180D1EEE9F7E073D1A2E3B0E07D
:1002E0008C9182FBA8E0B4E0C2D18D9388278C93D7
:1002F00072D16DD1929A80E197E275D180E090E061
:100300009DBD8CBDEAE7F0E0A8E0B4E0C7D163D1C1
:10031000EEE9F7E056D1ECE4F0E0A8E0B4E0BED1BD
:100320005AD1EEE9F7E04DD1A2E3B0E08C9182FB27
:10033000A8E0B4E09CD18D9388278C934CD147D111
:10034000929896CF07B1007F07B984D1A2E6B0E0BA
:100350008D939C9307B1007F076007B97BD1A4E61A
:10036000B0E08D939C9307B1007F016007B972D113
:10037000A6E6B0E08D939C93A2E6B0E00D911D91AE
:1003800017FB1EF42FEF3FEF02C02227332742E076
:1003900050E060E070E075D0AEE6B0E00D931D93E4
:1003A0002D933D93A4E6B0E00D911D9117FB1EF433
:1003B0002FEF3FEF02C02227332742E050E060E0FA
:1003C00070E05FD0A2E7B0E00D931D932D933D93B5
:1003D000A6E6B0E00D911D9117FB1EF42FEF3FEF45
:1003E00002C02227332742E050E060E070E049D0AD
:1003F000A6E7B0E00D931D932D933D93AEE6B0E0DC
:100400000D911C91A2E7B0E04D915C91040F151F76
:10041000AAE7B0E00D931C93AAE7B0E00D911C9100
:10042000A6E7B0E04D915C91040F151FAAE7B0E07C
:100430000D931C93AAE7B0E08AD1AAE7B0E04D93F0
:100440005C93AAE7B0E00D911C91A3E8B0E04D9158
:100450005C91041B150BAAE7B0E00D931C93AAE76F
:10046000B0E00D911C9100365AEE150710F009F01E
:1004700001C006C080E090E0AAE7B0E08D939C93B5
:1004800008951FD0C9F0002E112E222E332E415078
:1004900050406040704015D009F408954F935F9329
:1004A0006F937F93402D512D622D732DB0D07F918E
:1004B0006F915F914F91EBCF01E0112722273327F6
:1004C00008958827842B852B862B872B80300895D1
:1004D00000FC05D0089530D005D001F8F9CF37D011
:1004E0003FD00895842F952FA62FB72FE894452B42
:1004F000462B472B11F468940895402F512F622FFB
:10050000732F0027112722273327F0E2440F551FAE
:10051000661F771F001F111F221F331F081B190B97
:100520002A0B3B0B416028F4080F191F2A1F3B1FA1
:100530004E7FFA9559F708950024E89477FF02C09A
:1005400006D0689400F809D010F80124089512D05C
:100550004F5F5F4F6F4F7F4F0895E89437FF0895C7
:1005600000951095209530950F5F1F4F2F4F3F4FEF
:1005700068940895409550956095709508953197C9
:10058000F1F70895689462F80895E89462F8089580
:100590008F939F9383E090E00197F1F79F918F9164
:1005A000089580952AE090E0089410F4C49802C061
:1005B000C49A0000EDDFECDF969587952A95A9F7A0
:1005C000089551D0802D11F0ECDFFBCF08958DE020
:1005D000E8DF8AE0E6CFA8E0B4E08D91882311F04F
:1005E000E0DFFBCF0895EF93FF93EE27E82BE92B95
:1005F00031F0E0EDF7E03197F1F70197D1F7FF9196
:10060000EF910895019111912191308108950F92F8
:100610001F922F92C801D901489F80014A9F9001E3
:100620004B9F202C499F100D211D321D5A9F202CBD
:10063000589F100D211D321D599F200D311D689F9F
:10064000200D311D699F300D789F300D2F901F9028
:100650000F900895369A3699FECF369A3699FECF86
:1006600084B195B10895C89531960020089580E32E
:100670000EF483950895040F151F261F371F089544
:10068000000F111F221F331F08950095109520950C
:1006900030950F5F1F4F2F4F3F4F089501911081ED
:1006A0000DC0B0DF0DC0AEDF10C00191108117FF8B
:1006B00005C03FEF2FEF04C0008111272227332709
:1006C00037FF03C0E2DF8DE28D93CF92DF92EF928E
:1006D000AA24BB24CC24DD24EE2440E2EAE0FF2758
:1006E00055E093E38081890F87FD9F7083FD907FA4
:1006F000891B81935A95A9F7C3DFAA1CBB1CCC1C8C
:10070000DD1CEE1C4A9551F7E894EFE0FF2782913B
:100710000CD0EB30E0F71EF068948A2D0AD08827C1
:100720008D93EF90DF90CF900895982F829501D010
:10073000892F8F70805D26F0803309F408956894C6
:100740008D9308950D911C9111231AF425C00D91DC
:100750001C919927222733274427552789E0440FE6
:10076000551F000F111F221F331F000F111F221FC3
:10077000331F642F752F660F771F63952617370772
:1007800020F0261B370B4395591F8A9541F7569544
:100790004795491F591F089544275527089520005C
:00000001FF
