S0140000416363656C5F4C49533330322E737265635C
S113000012C02CC02BC02AC029C0CAC227C026C017
S113001025C09DC223C003C221C020C01FC01EC072
S11300201DC01CC01BC011241FBECFE5D4E0DEBF21
S1130030CDBF10E0A0E6B0E0E0E0FDE002C0059036
S11300400D92AA3BB107D9F721E0AAEBB0E001C0B9
S11300501D92AB32B207E1F7C7D250C6D1CFDC0153
S1130060262F30E0FC01AC014D5F5F4F91819193ED
S1130070290F311DE417F507C9F713966C93C901CD
S113008096958795969587950895A49A8AE18A9579
S1130090F1F700C0A59A8AE18A95F1F700C0A49807
S11300A08AE18A95F1F700C0A5988AE18A95F1F76B
S11300B000C0109227019D9905C0809127018F5F90
S11300C0809327019C9905C0809127018F5F8093BD
S11300D027018AE18A95F1F700C08AE18A95F1F750
S11300E000C08AE18A95F1F700C08AE18A95F1F7A8
S11300F000C00895A598A498AD98AC98C6DFC5DF54
S11301000895A59A8AE18A95F1F700C0A49A8AE134
S11301108A95F1F700C00895A5988AE18A95F1F7C8
S113012000C0A4988AE18A95F1F700C0A59A8AE1F3
S11301308A95F1F700C0A49A8AE18A95F1F700C084
S1130140089598E0882314F0A59A01C0A5982AE19F
S11301502A95F1F700C0A4982AE12A95F1F700C086
S1130160A49A880F915071F7A5988AE18A95F1F7BE
S113017000C0A4982AE12A95F1F700C083B3A49A99
S113018085FB882780F90895282FA59898E080E0BA
S1130190880FA4983AE13A95F1F700C09D998160DF
S11301A0A49A3AE13A95F1F700C0915089F72111E8
S11301B002C0A59A01C0A5989AE19A95F1F700C0EA
S11301C0A4983AE13A95F1F700C0A49A9AE19A9575
S11301D0F1F700C0A5980895CF93DF93D82FC62FC9
S11301E090DF8AE3AEDF8D2FACDF8C2FAADF4DDFEB
S11301F0DF91CF910895CF93C82F83DF8AE3A1DFE6
S11302008C2F9FDF89DF8BE39CDF81E0BDDFC82F6C
S113021083DF3BDF8C2FCF910895CF93C82F6CE5FC
S113022081E2DADF81E3E7DF85E3E5DF67E680E2A9
S1130230D3DF80E1C89FB00111246E6081E2CCDF7E
S113024069E082E2C9DF6AE680E3C6DF6AE684E346
S1130250C3DF6FE782E3C0DF6FE786E3BDDF6FEFE5
S113026083E3BADF6FEF87E3B7DF8FE0C4DFCF91BB
S1130270089580916200BFDF80932801809161001E
S1130280BADF80932A0180916000B5DF20912801B4
S1130290022E000C330B33231CF4319521953109C4
S11302A0422F2093280120912A01022E000C330BA7
S11302B033231CF4319521953109322F20932A01DF
S11302C0082E000C990B99231CF4919581959109A2
S11302D0982F80932901411103C081E08093280164
S11302E0311103C081E080932A01911103C081E0A0
S11302F08093290180912801863044F480912A0159
S1130300863024F480912901863014F0C19A08952E
S1130310C19808955D9BFECF8CB90895CF93DF9368
S1130320EC018881882329F02196F4DF89918111D9
S1130330FCCFDF91CF910895CF92DF92EF92FF929D
S11303400F931F93CF93DF9384E690E0E7DFCEE132
S1130350C12CD12CE12CF12C00E010E0D2E089DF9B
S113036080912801080F111D87FD1A9580912A019B
S1130370E80EF11C87FDFA9480912901C80ED11C66
S113038087FDDA9488B38D2788BB89E790E0C6DFC0
S11303908FE39CE90197F1F700C00000C150F9F622
S11303A00C3211406CF08DE2809362008BE28093FA
S11303B0610089E2809360008BE790E0AFDF23C0A7
S11303C08CE2E81681E0F8066CF08DE2809362001E
S11303D089E2809361008BE28093600081E890E081
S11303E09DDF11C09CE2C91691E0D90664F089E250
S11303F0809362008BE2809361008DE280936000C1
S113040087E890E08BDF83E990E088DFDF91CF918C
S11304101F910F91FF90EF90DF90CF9008951F925E
S11304200F920FB60F9211242F934F935F938F93D4
S11304309F93EF93FF939CB19CB98091C200843643
S113044038F59D3059F09A3049F0E82FF0E0ED533B
S1130450FF4F90838F5F8093C2001AC09091C300B6
S11304609A3A61F490E00197823091053CF021E0E2
S11304702F5F422F50E048175907D4F3E3ECF0E024
S113048087E291E011928E179F07E1F71092C20064
S1130490FF91EF919F918F915F914F912F910F90C9
S11304A00FBE0F901F901895899A089591984091C6
S11304B0630050E0141615065CF420E030E0000000
S11304C02F5F3F4F24173507D1F740E050E002C0BB
S11304D040E050E0682F70E0CB01042E02C09595F7
S11304E087950A94E2F780FF02C0919A01C091981F
S11304F02091630030E0121613063CF480E090E093
S11305000000019682179307D9F74F5F5F4F483079
S1130510510511F7919A2091630030E012161306E9
S11305203CF480E090E00000019682179307D9F72D
S11305300895CF93DF93EC018881882329F02196D5
S1130540B5DF89918111FCCFDF91CF9108951F927E
S11305500F920FB60F9211248F939F938091C10035
S11305608F5F8093C10084E882BF8091C1008E3187
S113057080F08091BF009091C000880F991F9093E4
S1130580BE008093BD001092C0001092BF00109274
S1130590C1009F918F910F900FBE0F901F901895DF
S11305A01F920F920FB60F9211248F939F938091F5
S11305B0BF009091C00001969093C0008093BF004B
S11305C09F918F910F900FBE0F901F90189583B736
S11305D0856083BF8EB587608EBD89B7816289BF10
S11305E084E882BF78940895CF93DF93CDB7DEB7C4
S11305F0C057D1090FB6F894DEBF0FBECDBF198224
S11306001A821B821C821D821E821F8218861986F2
S11306101A861B861C8682E090E01CD38093BC0063
S113062080E090E01FD39093BB008093BA00B99A06
S1130630C09A60DD39DFCBDFFE013D96CE018F58D5
S11306409F4F1192E817F907E1F780E0E6DD8B335D
S113065081F48DE890E062DE6FDE81E0DEDD0F2E56
S1130660F6EAEF2EF0E0FF2EF02D8E01035F1F4F10
S11306700DC088E990E052DE2FEF81EE94E0215026
S113068080409040E1F700C00000F3CFF2DD6091BC
S11306902801CE010196E3DCD82E60912A01CE0117
S11306A00596DDDCC82E60912901CE010996D7DCC0
S11306B01F928F9380912901282F082E000C330B51
S11306C03F938F931F92CF9280912A01282F082E57
S11306D0000C330B3F938F931F92DF92809128017C
S11306E0282F082E000C330B3F938F93FF92EF9229
S11306F01F930F930ED0C8011CDF8FE39CE9019771
S1130700F1F700C000000FB6F894DEBF0FBECDBFF6
S1130710BDCFAEE0B0E0EEE8F3E0C7C20D891E89BC
S113072086E08C831A8309838FEF9FE79E838D83F2
S1130730AE01475E5F4F6F89788DCE01019608D078
S1130740EF81F885E00FF11F10822E96E4E0C9C214
S1130750ABE0B0E0EDEAF3E09AC26C017B018A0100
S1130760FC0117821682838181FFBFC1CE010196ED
S11307703C01F6019381F70193FD859193FF8191EB
S11307807F01882309F4ADC1853239F493FD859145
S113079093FF81917F01853221F4B60190E0C0D1AD
S11307A0E8CF912C212C312CFFE1F315D8F08B32BA
S11307B079F038F4803279F08332A1F4232D20616A
S11307C01DC08D3261F0803369F4232D216016C081
S11307D0832D8260382EE32DE4603E2E2AC0F32D53
S11307E0F8601DC037FC2DC020ED280F2A3040F0E2
S11307F08E32B9F436FC75C1232D2064322E19C013
S113080036FE06C08AE0989E200D1124922E11C057
S1130810EAE02E9E200D1124222EF32DF0623F2EAD
S113082008C08C3621F4832D8068382E02C08836A7
S113083041F4F70193FD859193FF81917F0181112B
S1130840B3CF982F9F7D9554933028F40C5F1F4F9E
S11308509FE399830DC0833631F0833771F083357C
S113086009F055C020C0F801808189830E5F1F4FB5
S113087088248394912C530112C02801F2E04F0E76
S1130880511CF801A080B18036FE03C0692D70E0D0
S113089002C06FEF7FEFC50138D14C018201F32D07
S11308A0FF773F2E15C0280122E0420E511CF801AB
S11308B0A080B18036FE03C0692D70E002C06FEFE6
S11308C07FEFC50117D14C01F32DF0683F2E820153
S11308D033FC19C0822D90E088169906A0F4B60165
S11308E080E290E01DD12A94F5CFF50137FC859183
S11308F037FE81915F01B60190E012D121102A9454
S113090021E0821A91088114910479F7E1C08436B8
S113091011F0893639F5F80137FE07C0608171811D
S1130920828193810C5F1F4F08C060817181072E03
S1130930000C880B990B0E5F1F4FF32DFF763F2E93
S113094097FF09C090958095709561957F4F8F4F63
S11309509F4FF0683F2E2AE030E0A3011DD1882E7E
S1130960861844C0853731F4232D2F7EB22E2AE019
S113097030E025C0932D997FB92E8F36C1F018F43D
S1130980883579F0AEC0803719F0883721F0A9C0D6
S1130990E92FE061BE2EB4FE0DC0FB2DF460BF2E26
S11309A009C034FE0AC0292F2660B22E06C028E0F2
S11309B030E005C020E130E002C020E132E0F8017F
S11309C0B7FE07C060817181828193810C5F1F4FE4
S11309D006C06081718180E090E00E5F1F4FA3012B
S11309E0DBD0882E8618FB2DFF773F2E36FE0DC0F8
S11309F0232D2E7FA22E891458F434FE0BC032FC12
S1130A0009C0832D8E7EA82E05C0B82CA32C03C04C
S1130A10B82C01C0B92CA4FE0FC0FE01E80DF11DD5
S1130A208081803321F49A2D997EA92E09C0A2FEDB
S1130A3006C0B394B39404C08A2D867809F0B394A5
S1130A40A3FC10C0A0FE06C0B21480F4280C922CA3
S1130A509B180DC0B21458F4B60180E290E060D047
S1130A60B394F8CFB21418F42B1802C0982C212C8C
S1130A70A4FE0FC0B60180E390E052D0A2FE16C0DF
S1130A80A1FC03C088E790E002C088E590E0B601CD
S1130A900CC08A2D867851F0A1FE02C08BE201C001
S1130AA080E2A7FC8DE2B60190E03AD0891430F4DC
S1130AB0B60180E390E034D09A94F8CF8A94F3019D
S1130AC0E80DF11D8081B60190E02AD08110F6CFA7
S1130AD0222009F44ECEB60180E290E021D02A947F
S1130AE0F7CFF6018681978102C08FEF9FEF2B9697
S1130AF0E2E1E9C0FC010590615070400110D8F7B3
S1130B00809590958E0F9F1F0895FC016150704051
S1130B1001900110D8F7809590958E0F9F1F08952E
S1130B200F931F93CF93DF93FB01238121FD03C018
S1130B308FEF9FEF2CC022FF16C04681578124817E
S1130B4035814217530744F4A081B1819D012F5F81
S1130B503F4F318320838C93268137812F5F3F4F12
S1130B603783268314C08B01EC01FB010084F185DB
S1130B70E02D0995892BE1F6D80116968D919C916B
S1130B801797019617969C938E931697CE01DF9133
S1130B90CF911F910F910895FA01AA27283051F19E
S1130BA0203181F1E8946F936E7F6E5F7F4F8F4F9A
S1130BB09F4FAF4FB1E03ED0B4E03CD0670F781FF9
S1130BC0891F9A1FA11D680F791F8A1F911DA11DDE
S1130BD06A0F711D811D911DA11D20D009F4689417
S1130BE03F912AE0269F11243019305D3193DEF6BF
S1130BF0CF010895462F4770405D4193B3E00FD075
S1130C00C9F7F6CF462F4F70405D4A3318F0495D5F
S1130C1031FD4052419302D0A9F7EACFB4E0A69542
S1130C209795879577956795BA95C9F70097610564
S1130C30710508959B01AC010A2E069457954795BA
S1130C4037952795BA95C9F7620F731F841F951FAF
S1130C50A01D0895E199FECF9FBB8EBBE09A992712
S1130C608DB30895A8E1B0E042E050E002C0DC0199
S1130C70CB01FC01E199FECF06C0FFBBEEBBE09ABD
S1130C8031960DB20D9241505040B8F708952F920D
S1130C903F924F925F926F927F928F929F92AF9208
S1130CA0BF92CF92DF92EF92FF920F931F93CF9355
S1130CB0DF93CDB7DEB7CA1BDB0B0FB6F894DEBFEC
S1130CC00FBECDBF09942A88398848885F846E8412
S1130CD07D848C849B84AA84B984C884DF80EE805C
S1130CE0FD800C811B81AA81B981CE0FD11D0FB665
S1130CF0F894DEBF0FBECDBFED010895F894FFCF89
S1130D002D2B296E416363656C20706F7369746960
S1130D106F6E207370616365002E0058202D3E2095
S1130D200059202D3E20005A202D3E2000414343EF
S1130D30454C204F4B0D0A00414343454C2045523E
S1130D40524F520D0A0025640925640925640925BA
S10D0D50640925640925640D0A00F6
S9030000FC
