:1000000012C0189518951895B1C43EC51895189545
:1000100018951895189556C9189518951895189506
:100020001895189518958FE58DBFC8E3E0E24E2E20
:1000300084E08EBFD4E0F4E05F2EA89584B7082E4C
:10004000877F84BF88E1992781BD91BDEEEFF3E002
:10005000A0E6B0E088278D933197E9F783E389B96B
:1000600080E080BD88E18AB96624B99A8A9A58DE10
:10007000BC9AC49A83E389B980E080BD599888E12D
:100080008AB986E880BD81E090E0ADEAB0E08D936A
:100090009C9380E08FBD85E48EBD79B7706279BF97
:1000A00087E085BD79B7746079BF79B7706479BF2F
:1000B000B898C09A8FE08093B90080E28093BA002C
:1000C00081E28093BB0082E28093BC0087E2809350
:1000D000BD0080E38093BE0084E38093BF0081E392
:1000E0008093C00085E38093C10082E38093C200C7
:1000F00086E38093C30083E38093C40087E3809307
:10010000C50089E28093C6008BE28093C7008DE230
:100110008093C80081E08093C900A0E1B0E0BA9369
:10012000AA93A9ECB0E0BA93AA939ED52496003086
:1001300009F00DC088B392E0892788BBECEDFDE1A2
:10014000E3DAE8DA84E690E0F1DAF4CF04C0E8EE2E
:10015000FDE1DADADFDAE1E0F0E0A0E1B0E0B2DB25
:10016000013009F008C0E1E0F0E0A0E1BB2786E93A
:100170008C937BE796DBE0E0F0E0A0E1B0E0A2DB6F
:10018000043608F008C0E0E0F0E0A0E1BB2780ED15
:100190008C937BE786DBE0E0F0E0A5EBB0E092DB60
:1001A000E1E0F0E0A0EBB0E08DDB80E08093B50013
:1001B00080E08093B000C6D680E08093C900A9ECAF
:1001C000B0E0BA93AA93A9ECB0E0BA93AA934CD545
:1001D0002496E1E0F0E0A0E1BB278EE18C937BE781
:1001E00060DBE0E0F0E0A0E1BB278AE08C937BE7F6
:1001F00058DB579A789486D4A5E6B0E08D919C910F
:1002000024DAA5E6B0E08D939C93A7E6B0E08D914B
:100210009C911BDAA7E6B0E08D939C93A9E6B0E031
:100220008D919C9112DAA9E6B0E08D939C93A5E69E
:10023000B0E00D911C91003050E0150709F006C0A8
:1002400081E090E0A5E6B0E08D939C93A7E6B0E056
:100250000D911C91003050E0150709F006C081E0B7
:1002600090E0A7E6B0E08D939C93A9E6B0E00D91F5
:100270001C91003050E0150709F006C081E090E0C5
:10028000A9E6B0E08D939C9398E0ABE6B0E072DA1B
:10029000ABE6B0E00D911D912D913C91A5E6B0E04B
:1002A0004D915D9157FB1EF46FEF7FEF02C0662703
:1002B0007727F8D9ABE6B0E00D931D932D933D93CE
:1002C000AFE6B0E0BA93AA93F5D12296EFE6F0E05C
:1002D0001EDDEDE0F0E03CDBA3E7B0E0DC9298E06F
:1002E000A4E7B0E047DAA4E7B0E00D911D912D91AD
:1002F0003C91A7E6B0E04D915D9157FB1EF46FEF86
:100300007FEF02C066277727CDD9A4E7B0E00D9331
:100310001D932D933D93A8E7B0E0BA93AA9333D2EF
:100320002296E8E7F0E0F3DCEDE0F0E011DBACE78B
:10033000B0E0DC9298E0ADE7B0E01CDAADE7B0E009
:100340000D911D912D913C91A9E6B0E04D915D91EB
:1003500057FB1EF46FEF7FEF02C066277727A2D905
:10036000ADE7B0E00D931D932D933D93A1E8B0E070
:10037000BA93AA9371D22296E1E8F0E0C8DCEDE0EE
:10038000F0E0E6DAA5E8B0E0DC92E5E6F0E0A8E02F
:10039000B4E02EDAC3D9E2EFFDE1B6D9E7E6F0E04A
:1003A000A8E0B4E025DABAD9E2EFFDE1ADD9E9E69B
:1003B000F0E0A8E0B4E01CDAB1D9E6EFFDE1A4D9A1
:1003C000EBE9F0E0A8E0B4E00FDAA8D9A3D9E1E0C6
:1003D000F0E0A7E8B0E076DAA7E8B0E04D91552765
:1003E000A5E6B0E00D911C910417150780E00CF014
:1003F00081E08F93A7E8B0E04D915527A7E6B0E0E4
:100400000D911C910417150780E00CF081E09F917D
:10041000892B8F9340E050E060E070E0A0EAB0E00C
:100420000D911D912D913C91C9D981E009F080E099
:100430009F918923882309F4B3C0E0E0F0E0ACE8A1
:10044000B0E040DAECECFDE117DCECE8F0E0D08065
:10045000EE24FF240027ECDA23DBEDE0F0E0A8E84F
:10046000B0E013DAE9E6F0E0D190E0808FEFE7FE4C
:100470008827F82E082FDCDA65DA2F933F934F9305
:100480005F93E5E6F0E0D190E0808FEFE7FE88270C
:10049000F82E082FCDDA5F914F913F912F9100DB1D
:1004A000EDE0F0E0ADE8B0E0F0D9E9E6F0E0D190C1
:1004B000E0808FEFE7FE8827F82E082FB9DA42DABE
:1004C0002F933F934F935F93E7E6F0E0D190E08066
:1004D0008FEFE7FE8827F82E082FAADA5F914F9159
:1004E0003F912F91DDDAEDE0F0E0A1E9B0E0CDD968
:1004F000EDE8F0E018DAE8E8F0E01ADAFBD981E09C
:1005000008F480E08F93EDE8F0E00DDAE8E8F0E041
:100510000FDAF0D981E008F480E09F91892B8823DD
:1005200009F43EC044E650E060E070E0ABE9B0E0C2
:100530000D911D912D913C9141D914F009F01FC0EE
:10054000929AE8EFFDE1E0D8E5D881E0809386005B
:10055000009186000A3010F009F00EC088B392E0D6
:10056000892788BB8CE291E0E1D8A6E8B0E08C91C5
:100570008F5F8C9308F4ECCFC198929811C0ABE9CF
:10058000B0E00D911D912D913C91A0EAB0E00D934A
:100590001D932D933C93AFE9B0E08C918F5F8C93CA
:1005A00000919F00073008F481C080E080939F0095
:1005B000A0EAB0E00D911D912D913C91ABE9B0E026
:1005C0004D915D916D917C91F4D8A4EAB0E00D93CA
:1005D0001D932D933D93A4EAB0E00D911D912D91B3
:1005E0003C9165D8A4EAB0E00D931D932D933D9303
:1005F00040E050E060E070E0ABE9B0E00D911D91AB
:100600002D913C91DBD809F00AC001E010E020E018
:1006100030E0ABE9B0E00D931D932D933C93EBE9F3
:10062000F0E081D905DA8ED92F933F934F935F93F2
:10063000E4EAF0E078D9FCD95F914F913F912F9196
:100640002FDAEDE0F0E0ADE8B0E01FD9EDE8F0E042
:100650006AD9E0EDFDE110DB4DD908F41DC0929A96
:10066000E8EFFDE151D856D881E0809386000091F3
:1006700086000A3010F009F00EC088B392E0892796
:1006800088BB8CE291E052D8A6E8B0E08C918F5FF5
:100690008C9308F4ECCF929800E010E020E030E07A
:1006A000A0EAB0E00D931D932D933C9384E190E07C
:1006B0003DD8A1CDABE6B0E00D911D912D913C91BF
:1006C000AAECB0E00D931D932D933C930091CA00CA
:1006D0004FEF0423AEECB0E00C93EEECF0E0D080F2
:1006E000EE24FF2400278CD9A881B98126D998E06F
:1006F000AAECB0E04AD8EEECF0E0D080EE24FF2483
:10070000002796D91FD9E881F9810DD967DAEDE084
:10071000F0E0A881B981B9D898E0AAECB0E035D86A
:10072000EEECF0E0D080EE24FF24002781D90AD936
:10073000E881F981F8D852DAEDE0F0E0A881B981DA
:10074000A4D898E0AAECB0E020D8EEECF0E0D0809D
:10075000EE24FF2400276CD9F5D8E881F981E3D88D
:100760003DDAEDE0F0E0A881B9818FD8E4EDFDE15C
:1007700083DAE881F981D7D893D9EDE0F0E0A88158
:10078000B98183D80895A4E7B0E00D911D912D9112
:100790003C91AFECB0E00D931D932D933C930091F1
:1007A000CF004FEF0423A3EDB0E00C93E3EDF0E0B6
:1007B000D080EE24FF24002723D9A881B981BDD899
:1007C00098E0AFECB0E0E1D7E3EDF0E0D080EE24CC
:1007D000FF2400272DD9B6D8E881F981A4D8FED905
:1007E000EDE0F0E0A881B98150D898E0AFECB0E03E
:1007F000CCD7E3EDF0E0D080EE24FF24002718D919
:10080000A1D8E881F9818FD8E9D9EDE0F0E0A8819D
:10081000B9813BD898E0AFECB0E0B7D7E3EDF0E0BA
:10082000D080EE24FF24002703D98CD8E881F981F9
:100830007AD8D4D9EDE0F0E0A881B98126D8E4EDEA
:10084000FDE11ADAE881F9816ED82AD9EDE0F0E00D
:10085000A881B9811AD80895ADE7B0E00D911D9136
:100860002D913C91A4EDB0E00D931D932D933C93FD
:100870000091D4004FEF0423A8EDB0E00C93E8ED15
:10088000F0E0D080EE24FF240027BAD8A881B981F7
:1008900054D898E0A4EDB0E078D7E8EDF0E0D0804F
:1008A000EE24FF240027C4D84DD8E881F9813BD835
:1008B00095D9EDE0F0E0A881B981E7D798E0A4ED03
:1008C000B0E063D7E8EDF0E0D080EE24FF2400270D
:1008D000AFD838D8E881F98126D880D9EDE0F0E0AA
:1008E000A881B981D2D798E0A4EDB0E04ED7E8ED69
:1008F000F0E0D080EE24FF2400279AD823D8E881A6
:10090000F98111D86BD9EDE0F0E0A881B981BDD7AC
:10091000E4EDFDE1B1D9E881F98105D8C1D8EDE078
:10092000F0E0A881B981B1D7E0E0F0E0ACE8B0E058
:10093000C9D7E8EDFDE1A0D9ECE8F0E0D080EE24E5
:10094000FF24002775D8ACD8EDE0F0E0A8E8B0E0CF
:100950009CD7E8E8F0E0ECD7E881F981E4D7F9D852
:10096000EDE0F0E0A881B98190D708950F921F9231
:100970002F923F924F925F927F92AF92BF920F93CE
:100980001F932F933F934F935F936F937F938F9317
:100990009F93AF93BF93CF93DF93EF93FF938FB763
:1009A0008F93ACEAB0E08C918F5F8C930091AC0098
:1009B000053010F009F001C04BC08EB5887F8EBDA8
:1009C000882785BD40E050E060E070E0A7E9B0E036
:1009D0000D911D912D913C91F1D609F00AC001E0D5
:1009E00010E020E030E0A7E9B0E00D931D932D93D7
:1009F0003C93A7E9B0E00D911D912D913C91ABE99D
:100A0000B0E00D931D932D933C9300919F00003017
:100A100010F009F001C005C0AFE9B0E08C918F5F24
:100A20008C9300E010E020E030E0A7E9B0E00D9307
:100A30001D932D933C9380E08093AC0080E090E088
:100A40009DBD8CBD70E074BD85E48EBD87E085BD25
:100A50008F918FBFFF91EF91DF91CF91BF91AF91B8
:100A60009F918F917F916F915F914F913F912F91C6
:100A70001F910F91BF90AF907F905F904F903F90EC
:100A80002F901F900F9018950F921F922F923F92C8
:100A90004F925F927F92AF92BF920F931F932F93CB
:100AA0003F934F935F936F937F938F939F93AF93F6
:100AB000BF93CF93DF93EF93FF938FB78F9388B359
:100AC00092E0892788BBA7E9B0E088D58F918FBFD6
:100AD000FF91EF91DF91CF91BF91AF919F918F9156
:100AE0007F916F915F914F913F912F911F910F9146
:100AF000BF90AF907F905F904F903F902F901F904E
:100B00000F901895A2E6B0E0BA93AA93A6ECB0E0D5
:100B1000BA93AA9306D22496A3E6B0E0BA93AA9316
:100B2000A7ECB0E0BA93AA93FCD12496A4E6B0E077
:100B3000BA93AA93A8ECB0E0BA93AA93F2D1249600
:100B4000A5E6B0E0BA93AA93A2E6B0E0BA93AA935E
:100B50005ED02496A7E6B0E0BA93AA93A3E6B0E0ED
:100B6000BA93AA9354D02496A9E6B0E0BA93AA9374
:100B7000A4E6B0E0BA93AA934AD02496A5E6B0E0E2
:100B80008D919C9162D5A5E6B0E08D939C93A7E6EC
:100B9000B0E08D919C9159D5A7E6B0E08D939C93E0
:100BA000A9E6B0E08D919C9150D5A9E6B0E08D9377
:100BB0009C93A5E6B0E00D911C91053050E015071F
:100BC00080E014F009F081E08F93A7E6B0E00D918A
:100BD0001C91053050E0150780E014F009F081E029
:100BE0009F91892B8F93A9E6B0E00D911C91053060
:100BF00050E0150780E014F009F081E09F91892B07
:100C0000882309F402C0C19A01C0C1980895A8813F
:100C1000B9810C9107FB0EF01AC00FEFA881B981C2
:100C20004C910427A881B9810C93A881B9818C913A
:100C30008F5F8C9300E010E0A881B9814D9155271A
:100C4000041B150BAA81BB810D931C930CC000E003
:100C500010E0A881B9814D915527040F151FAA8175
:100C6000BB810D931C9308958CE580936000ABEBE2
:100C7000B0E0BA93AA93A0E6B0E0BA93AA9344D1A5
:100C80002496A1E6B0E0BA93AA93A0ECB0E0BA93A0
:100C9000AA9347D12496A1E6B0E0BA93AA93A1EC17
:100CA000B0E0BA93AA933DD1249680E0809360008F
:100CB000A0E6B0E08C918F778C93A0E6B0E08C91A9
:100CC00080648C93A0E6B0E08C9180628C93A0E667
:100CD000B0E08C9180618C93A0E6B0E08C91877F2E
:100CE0008C93A0E6B0E08C9184608C93A0E6B0E099
:100CF0008C9182608C93A0E6B0E08C9181608C93A3
:100D0000AAEBB0E0BA93AA93A0E6B0E0BA93AA9394
:100D1000FBD0249680E080936000A0E6B0E08C9148
:100D20008F778C93A0E6B0E08C918F7B8C93A0E6BC
:100D3000B0E08C918F7D8C93A0E6B0E08C918061C7
:100D40008C93A0E6B0E08C9188608C93A0E6B0E034
:100D50008C9184608C93A0E6B0E08C9182608C933F
:100D6000A0E6B0E08C918E7F8C93A881B9810C9124
:100D7000013009F006C0A0E6B0E08C918F7E8C9324
:100D800005C0A0E6B0E08C9180618C93ABEBB0E045
:100D9000BA93AA93A0E6B0E0BA93AA93B5D02496EA
:100DA00080E080936000A0E6B0E08C918F778C9318
:100DB000A0E6B0E08C918F7B8C93A0E6B0E08C91A4
:100DC00088608C93A0E6B0E08C9181608C93ACEB52
:100DD000B0E0BA93AA93A0E6B0E0BA93AA9394D0F5
:100DE000249680E080936000A0E6B0E08C918F773D
:100DF0008C93A0E6B0E08C9180648C93A0E6B0E088
:100E00008C9180628C93A0E6B0E08C918F7E8C9365
:100E1000A0E6B0E08C9188608C93A0E6B0E08C9165
:100E20008B7F8C93A0E6B0E08C9182608C93A0E6DF
:100E3000B0E08C918E7F8C93AEEBB0E0BA93AA9326
:100E4000A0E6B0E0BA93AA935FD02496AFEBB0E0EF
:100E5000BA93AA93A0E6B0E0BA93AA9355D0249689
:100E600080E080936000A0E6B0E08C918F778C9357
:100E7000A0E6B0E08C918F678C93A2ECB0E0BA93BF
:100E8000AA93A0E6B0E0BA93AA933ED02496A3EC2E
:100E9000B0E0BA93AA93A0E6B0E0BA93AA9334D094
:100EA00024968FEF80936000A4ECB0E0BA93AA93ED
:100EB000A0E6B0E0BA93AA9327D02496A5ECB0E0C0
:100EC000BA93AA93A0E6B0E0BA93AA931DD0249651
:100ED000A0E6B0E0BA93AA93A9EBB0E0BA93AA93C4
:100EE00020D02496009160000B3309F005C081E00A
:100EF000AA81BB818C9304C080E0AA81BB818C93C2
:100F00008AE090E013D4089510D71AE325D7AA8178
:100F1000BB811C9121D7A881B9811C911DD713D702
:100F2000089503D71AE318D7A881B9811C9114D763
:100F3000FCD61BE311D72DD7AA81BB811C93F5D614
:100F400002D708958091C6008093E5008091C70084
:100F50008093E6008091C8008093E70000E010E0F5
:100F600020E030E0A9EDB0E00D931D932D933C936C
:100F700000E010E020E030E0ADEDB0E00D931D9317
:100F80002D933C9300E010E020E030E0A1EEB0E0D3
:100F90000D931D932D933C93EEEFFDE1B5D381E0CE
:100FA00080938600009186000E3110F009F0CEC0CB
:100FB000A5E6B0E0BA93AA93A6ECB0E0BA93AA93E0
:100FC000B0DF2496A7E6B0E0BA93AA93A7ECB0E00E
:100FD000BA93AA93A6DF2496A9E6B0E0BA93AA939F
:100FE000A8ECB0E0BA93AA939CDF2496A5E6B0E003
:100FF000BA93AA93A5E6B0E0BA93AA9308DE249622
:10100000A7E6B0E0BA93AA93A7E6B0E0BA93AA9392
:10101000FEDD2496A9E6B0E0BA93AA93A9E6B0E073
:10102000BA93AA93F4DD2496A5E6B0E00D911C9145
:10103000065F1F4FA5E6B0E00D931C93A7E6B0E056
:101040000D911C9109501040A7E6B0E00D931C9340
:10105000A9E6B0E00D911C9108501040A9E6B0E05F
:101060000D931C93A5E6B0E08D919C91EED2A5E680
:10107000B0E08D939C93A7E6B0E08D919C91E5D272
:10108000A7E6B0E08D939C93A9E6B0E08D919C918A
:10109000DCD2A9E6B0E08D939C93A9EDB0E00D9170
:1010A0001D912D913C91A5E6B0E04D915D9157FBCE
:1010B0001EF46FEF7FEF02C06627772775D3A9ED87
:1010C000B0E00D931D932D933D93ADEDB0E00D91E8
:1010D0001D912D913C91A7E6B0E04D915D9157FB9C
:1010E0001EF46FEF7FEF02C0662777275DD3ADED6B
:1010F000B0E00D931D932D933D93A1EEB0E00D91C3
:101100001D912D913C91A9E6B0E04D915D9157FB69
:101110001EF46FEF7FEF02C06627772745D3A1EE5D
:10112000B0E00D931D932D933D93E4E1FEE1ECD2ED
:1011300084E190E0FBD288B392E0892788BBA6E8DF
:10114000B0E08C918F5F8C9308F42CCFA9EDB0E0C8
:101150000D911C9144E150E058D2A5E6B0E04D93CA
:101160005C93ADEDB0E00D911C9144E150E04DD2A7
:10117000A7E6B0E04D935C93A1EEB0E00D911C9119
:1011800044E150E042D2A9E6B0E04D935C93A5E67D
:10119000B0E00D911C910A3050E015070CF001C031
:1011A00029C08091E7008093C6008091E60080937B
:1011B000C7008091E5008093C800E6E1FEE1A4D27B
:1011C000A9D2C19881E08093860000918600023008
:1011D00010F009F00EC088B392E0892788BB88EC34
:1011E00090E0A4D2A6E8B0E08C918F5F8C9308F4D5
:1011F000ECCF62C0A7E6B0E00D911C910A3050E040
:1012000015070CF001C028C08091E7008093C6004C
:101210008091E5008093C7008091E6008093C8002C
:10122000ECE1FEE171D276D281E0809386000091FC
:101230008600043010F009F00EC088B392E08927D0
:1012400088BB88EC90E072D2A6E8B0E08C918F5F0A
:101250008C9308F4ECCF30C0A9E6B0E00D911C915E
:101260000A3050E015070CF001C026C08091E5005F
:101270008093C6008091E6008093C7008091E700CC
:101280008093C800E2E2FEE13FD281E080938600D5
:1012900000918600063010F009F00EC088B392E08D
:1012A000892788BB88EC90E041D2A6E8B0E08C9119
:1012B0008F5F8C9308F4ECCFE8E2FEE125D22AD2CE
:1012C000C19808950F921F922F923F924F925F9272
:1012D0007F92AF92BF920F931F932F933F934F93A1
:1012E0005F936F937F938F939F93AF93BF93CF93AE
:1012F000DF93EF93FF938FB78F93AFEAB0E08CB19A
:101300008C9370E07CB9ADEAB0E00D911C91023392
:1013100050E0150708F036C181E026D28AE0A881A6
:10132000B9818D9388278C93A881B9814C910091C4
:10133000AF0004170FB681E0481A80E0580A2296E1
:101340000FBE09F0DBC081E080938600009186002B
:10135000043010F009F016C0E6E8F0E0A190BB24DC
:10136000EFEAF0E0EA0DFB1DA8E0B4E048D2D6D1E8
:10137000E6EFFDE1C9D1A6E8B0E08C918F5F8C93D8
:1013800008F4E4CFECE2FEE1BFD1C4D181E090E00B
:10139000ADEAB0E08D939C9380E08093B80080919B
:1013A000B0008093AF0081E08093860000918600BA
:1013B000033010F009F01DC0A6E8B0E0AD90BB24EA
:1013C000AFEAB0E0AA0DBB1D0C914FE00423A0EBE7
:1013D000B0E00C930091B8004091B000040FA8EB6E
:1013E000B0E00C93A6E8B0E08C918F5F8C9308F48A
:1013F000DDCF8091AF008093B00080E08093AF009C
:101400000091B0000A3A81E009F080E08F934091AA
:10141000B8000091B300041781E009F080E09F91CB
:101420008923882309F44BC0EEE2FEE16DD1E1EBA4
:10143000F0E0A8E0B4E0E3D171D1E2EFFDE164D1E6
:10144000E8E3FEE161D1E2EBF0E0A8E0B4E0D7D15F
:1014500065D160D14091B200E0E0F0E0A0E1B0E001
:1014600031D2041781E009F480E08F934091B100FC
:10147000E1E0F0E0A0E1B0E025D2041781E009F45A
:1014800080E09F91892B882309F414C0E0E0F0E00C
:10149000A2EBB0E07BE705D2E1E0F0E0A1EBB0E049
:1014A0007BE7FFD1E2E4FEE12FD134D188EB9BE072
:1014B0003DD104C0E8E5FEE127D12CD104C0EEE720
:1014C000FEE1E3D0E8D081E08093860000918600C1
:1014D000053010F009F011C080E0A6E8B0E0AD9052
:1014E000BB24AFEAB0E0AA0DBB1D8C93A6E8B0E028
:1014F0008C918F5F8C9308F4E9CF43C081E034D1A5
:101500008AE0A881B9818D9388278C93A881B981BD
:101510004C910091AF0004170FB681E0481A80E0AB
:10152000580A22960FBE09F426C081E01DD18DE035
:10153000A881B9818D9388278C93A881B9814C911A
:101540000091AF0004170FB681E0481A80E0580AF6
:1015500022960FBE09F40BC08091AF00ADEAB0E057
:10156000AD90BD90AFEAB0E0AA0DBB1D8C93ADEA83
:10157000B0E041D006C081E090E0ADEAB0E08D93EC
:101580009C9310C0ECE9FEE180D0E8EAFEE17DD05A
:10159000ECEAFEE17AD07FD081E090E0ADEAB0E005
:1015A0008D939C938F918FBFFF91EF91DF91CF919E
:1015B000BF91AF919F918F917F916F915F914F916B
:1015C0003F912F911F910F91BF90AF907F905F90AF
:1015D0004F903F902F901F900F9018950D911D9157
:1015E0002D913C910F5F1F4F2F4F3F4F3C932E93F8
:1015F0001E930E930895ED91FC91EF5FFF4FFC93C6
:10160000EE93089500FC10D0089503D024D001F883
:10161000F9CF0024E89457FF02C009D0689400F87D
:101620000BD010F80124089502D009D008955095E8
:1016300040954F5F5F4F0895E89417FF0895009518
:1016400010950F5F1F4F6894089599231AF48095A1
:10165000909501960895352F242FE894452B11F489
:1016600068940895512F402F0027112780E1440FDF
:10167000551F001F111F021B130B416018F4020FAE
:10168000131F4E7F8A9599F708958AD0802D11F007
:1016900005D0FBCF08958DE001D08AE05D9BFECFA1
:1016A0008CB90895042B152B262B372B089537FF63
:1016B000089500951095209530950F5F1F4F2F4F7F
:1016C0003F4F08953197F1F70895689462F80895AF
:1016D000E89462F808958F939F9383E690E00197D2
:1016E000F1F79F918F91089580952AE090E00894FA
:1016F00010F4C49802C0C49A0000EDDFECDF9695A8
:1017000087952A95A9F708954BD0802D11F0ECDF2D
:10171000FBCF08958DE0E8DF8AE0E6CFA8E0B4E0F3
:101720008D91882311F0E0DFFBCF0895EF93FF93B5
:10173000EE27E82BE92B31F0E0EDF7E03197F1F7F8
:101740000197D1F7FF91EF9108950D911D912D9182
:101750003C910895019111912191308108953C931C
:101760002E931E930E93089599275A924A92480EEB
:10177000591E0895903041F0E8DF000F111F221F1D
:10178000331F9A95D1F7EBCF0895903041F0DDDF0C
:1017900036952795179507959A95D1F7E0CF089537
:1017A000C895319600200895040F151F261F371F76
:1017B0000895041B150B260B370B08950417150706
:1017C000260737070895000F111F221F331F0895A2
:1017D00000951095209530950F5F1F4F2F4F3F4F6D
:1017E0000895019110810DC0B5DF0DC0B3DF10C0A9
:1017F0000191108117FF05C03FEF2FEF04C000815A
:1018000011272227332737FF03C0E2DF8DE28D93B4
:10181000CF92DF92EF92AA24BB24CC24DD24EE24C5
:1018200040E2EAE0FF2755E093E38081890F87FDDE
:101830009F7083FD907F891B81935A95A9F7C3DF21
:10184000AA1CBB1CCC1CDD1CEE1C4A9551F7E8946D
:10185000EFE0FF2782910CD0EB30E0F71EF06894A8
:101860008A2D0AD088278D93EF90DF90CF9008952E
:10187000982F829501D0892F8F70805D26F080335C
:1018800009F4089568948D93089594E081918D935F
:101890009A95E1F70895E199FECFEEBBFFBB319633
:1018A000089591E001C092E07B3751F47FB7F8943E
:1018B000F2DF8D918DBBE29AE19A9A95C9F77FBFCD
:1018C0007727089591E001C092E0E5DFE09A8DB3BB
:1018D0008D939A95D1F70895B7FE089590E8B916BB
:1018E00011F4D0FE08959FEFD91AE90AF90A09F414
:1018F000039508950F928F939F93D216E306F406F3
:101900000FB680E890E8802795270FBE890739F049
:101910000FB6892B87FD02C081E008260FBE9F917C
:101920008F910F900895D190E190F19001910895D9
:1019300021913191419151910895DD92ED92FD9265
:101940000C930895502F2D2D3E2D4F2D612F08956E
:10195000EADF992711278F2D880F80E8F82A802F3A
:10196000881F08F41FEF41F08F57082F07FD04C0B0
:10197000003240F08FEF01C08827982FD82EE82E34
:10198000F82E09C08FE1801B082FF694E794D794B6
:1019900097950A95D1F7112351F09095D094E09442
:1019A000F09481E0980F8827D81EE81EF81E0F2DAE
:1019B000FE2CED2CD92E0895D094E094F09491E073
:1019C000D90E9927E91EF91E10950895652F90E804
:1019D000440F551F5927990F47956078102F90E8AD
:1019E000FF0C001F0927990FF7941078003808950D
:1019F000FF0C90E89027110F9795F794092F089501
:101A00001127BD2CDE2CEF2CF02E0EE1FF2039F437
:101A1000FE2CED2CDB2CBB240850C2F775C032F035
:101A20000A95BB0CDD1CEE1CFF1CF9CF55DFE0CF87
:101A3000102FBD2CDE2CEF2CF02E11234AF4B09485
:101A4000D094E094F0949FEFB91AD90AE90AF90A00
:101A50000EE1FF2039F4FE2CED2CDB2CBB240850CA
:101A6000C2F752C032F00A95BB0CDD1CEE1CFF1C05
:101A7000F9CF32DFBDCF2DEC3CEC4CEC5DE36627BB
:101A80000FC051DF5FDFDD24EE2490E8F92E0FE375
:101A900007C04EDF05C02227332740E251E4662706
:101AA000552351F1002381F191DF71F11627005880
:101AB00050580894050B18F407FD03C025C007FD16
:101AC00023C0469537952795F694E794D79425D06B
:101AD000FF202AF0DD0CEE1CFF1C015073F09D2D41
:101AE000969548F0DD203AF4EE202AF491E0D90EE4
:101AF0009927E91EF91E7CCF07C09FE7092FF92A15
:101B00009FEFD92EE92E0895DD24EE24FF2400272F
:101B1000112708950FE79FEFF2CF9F929924AA24EF
:101B2000BB2488E1D216E306F40628F0D21AE30AB1
:101B3000F40A089401C08894991CAA1CBB1CDD0CF3
:101B4000EE1CFF1C8A9571F7D92CEA2CFB2C9F9078
:101B500008953CDFD1F05038C1F016270058952F7A
:101B600090580894091F12F418F40EC008F00DC024
:101B70000DD0FF202AF0BB0CDD1CEE1CFF1C02C0A8
:101B8000039513F0A9DE34CFB8CFBECF9F92FF925A
:101B9000EF928D2DFF24EE24DD24BB2493E0849F5F
:101BA0001001829FB00CD11CE21CF31C839FD00C4F
:101BB000E11C2224F21C9A9531F0BD2CDE2CEF2C76
:101BC000FF248F91ECCF9F9008950AF045D010CF5D
:101BD0005FE322273327442701C0AADEF7DE50380F
:101BE000B1F3003899F3902F951B8BF312F434D096
:101BF000FACF983118F0222733274427983028F05D
:101C0000232F342F44279850F9CF992329F0469554
:101C1000379527959A95D9F7912F962742F014D0AA
:101C2000B0F6F794E794D7940F5F8BF666CF10D099
:101C300051F008F4C1DEFF2052F2DD0CEE1CFF1C57
:101C40000150CBF75ACF60CFD20EE31EF41E089599
:101C5000D21AE30AF40A0895DF92EF92FF920F93EB
:101C60001F93D22EE32EF42E052F162F6F915F9126
:101C70004F913F912F91089593DD202D91DD302DCF
:101C80008FDD402D8DDD502D08954DDE80E003C0A9
:101C90004ADE802F8078882321F0DF92EF92FF9236
:101CA0000F938F9393DE802F839512F42DDF1BC04B
:101CB00080958A95885E0AF415C088501AF40CD075
:101CC000D92210C0DD2488501AF406D0E9220AC0B7
:101CD000EE2402D0F92206C09FEF8770990F8A95F3
:101CE000EAF7089585DE8F918823D9F35F914F91AC
:101CF0003F912F910F93FEDD0F9199F390F302D056
:101D000050686CCF5FE340E83327222708950BDE4D
:101D10000F930F775DDFBDDF8F918078082B0895DB
:101D2000A598A498AD98AC980895A49AA59803D0C6
:101D3000A49801D0A59AEF93FF93E0E1F0E0C2DC14
:101D4000FF91EF910895A49AA59AF5DFA4989C9B22
:101D5000FECFF1DFA598EFCF0894111F01C0110F3E
:101D600069F0A49A18F40000A59802C0A59A00C0D2
:101D7000E2DFA4989C9BFECFDEDFF1CFA49AA5986A
:101D8000DADFA4989C9BFECFE8949D99689462F852
:101D9000D2CF089401C08894331F11E0A49AA5986B
:101DA000CADFA4989C9BFECFC6DF88949D990894B7
:101DB000111FA0F7A49A379510F4A59801C0A59A11
:101DC000BADFA4989C9BFECFB6DF089500002041A7
:101DD0009A99993E000080400000C84241636365C3
:101DE0006C206572726F7200416363656C204F4BAB
:101DF0000000202000002000556461722100416332
:101E000063656C20706F736974696F6E20737061A5
:101E1000636500002E0058202D3E200059202D3EE5
:101E200020005A202D3E20004F4B00000000506F34
:101E3000726F675F583D0000506F726F675F5A3D69
:101E40000000202D2D3E20536574206E6577207094
:101E50006F726F672E2E2E00202D2D3E2053656E43
:101E600064696E6720706F726F67203D20656570D2
:101E7000726F6D20706F726F672E2E2E000053747C
:101E80006172742062797465206F7220435243201E
:101E9000636F7272757074656421000050726576AC
:0E1EA000797368656E20280035300000290037
:00000001FF
