:1000000012C060C5189518951895189518951895EB
:100010001895189518951895189518951895189578
:100020001895189518958FE58DBFC8E3E6EF4E2E0D
:1000300084E08EBFD4E0F3E05F2EA89584B7082E4D
:10004000877F84BF88E1992781BD91BDEEEFF3E002
:10005000A0E6B0E088278D933197E9F766248A9867
:100060008C98A39A8898909A92989498D6D485B7A9
:10007000836085BF7BB770647BBF78948EE180938B
:10008000F40080E08093860080E08093870080E029
:100090008093880080E08093890080E080938A00CC
:1000A00080E080938B0080E080938C0080E08093E0
:1000B0008D00E0E0F0E0A0E6B1E0DFD7ACE2B1E037
:1000C00088278C938CE291E0EED480995EC080E02A
:1000D00080935F0181E08093280100912801083C12
:1000E00010F009F011C0809905C0AFE5B1E08C9126
:1000F0008F5F8C9381E090E0D6D4A8E2B1E08C9140
:100100008F5F8C9308F4E9CF00915F01063910F0FE
:1001100009F001C039C080E080935F01AB9A809103
:1001200060018093610184E690E0BDD400915F019D
:10013000043108F006C0AFE5B1E08C918F5F8C937D
:100140001CC04091600100916101041709F011C0C9
:1001500000916001013010F009F001C004C081E09D
:100160008093600103C082E08093600185E080930A
:10017000610185B398E0892785BB809902C0D3CF00
:1001800003C080E080935F0103C080E080935F0143
:1001900000916101053009F029C0E0E0F0E0A1E63E
:1001A000B1E06BD74091610100916001041709F43F
:1001B0001DC0E0E0F0E0A0E6B1E07BE74DD781E0D4
:1001C00080932801009128010A3010F009F00EC038
:1001D00085B398E0892785BB88EC90E064D4A8E2D9
:1001E000B1E08C918F5F8C9308F4ECCF80E090E0CD
:1001F000A1EAB0E08D939C9384990EC0A1EAB0E08F
:1002000036D4A1EAB0E00D911C91083E53E01507E9
:1002100009F001C002D4F0CFAEE9B0E00C9107FBC9
:100220000EF045C0AEE9B0E00C9104FB0EF009C041
:100230003FB6F894A8E7B0E0BA93AA9306D2229604
:100240002AC0AEE9B0E00C9101FB0EF024C0A2E69A
:10025000B0E08C9180FBA2E3B0E08C9180F98C93AC
:10026000A2E6B0E08C9181FBA2E3B0E08C9181F931
:100270008C93A2E6B0E08C9180FBA5E3B0E08C917A
:1002800083F98C93A2E6B0E08C9182FBA2E3B0E00C
:100290008C9183F98C936894AEE9B0E08C9186F9E7
:1002A0008C93E894AEE9B0E08C9187F98C9382E06E
:1002B000E3E3D3D562FA0EF439C153E382E0E3E31A
:1002C000EED5A5EFB0E088278C9300E010E020E0A9
:1002D00030E0A2E6B1E00D931D932D933C9380E0B6
:1002E0008093660181E08093280100912801083005
:1002F00010F009F03FC0BB27A6E182E0E3E321E074
:100300002A93F1D5A6E6B1E05C93A5EFB0E0B6D3B1
:10031000E6E6F1E071D600912801043010F009F012
:1003200001C017C098E0A2E6B1E06AD5A2E6B1E04C
:100330000D911D912D913C91A6E6B1E04C91552770
:1003400066277727A2D3A2E6B1E00D931D932D93E4
:100350003D9300916001013009F005C0A5EFB0E0C8
:10036000E2E6F1E0F3D5A8E2B1E08C918F5F8C93E7
:1003700008F4BBCF8EE190E096D3AB9BD7C080E072
:100380008093A700D4D08EE190E08DD3A5EFB0E0AC
:100390007ED6A1E6B1E08C9381E080932801409164
:1003A000610100912801041710F009F0B5C0809197
:1003B0002801E5EFF0E001E00A93A9E2B1E037D6C9
:1003C0008DE280932B01A9E2B1E0EAE0F1E165D68C
:1003D00009F004C087E280932B018FC0ECE0F1E1CB
:1003E0005CD609F004C08EE180932B0186C0EEE05C
:1003F000F1E153D609F004C08FE180932B017DC059
:10040000E0E1F1E14AD609F004C080E280932B01DB
:1004100074C0E2E1F1E141D609F004C081E28093C9
:100420002B016BC0E4E1F1E138D609F004C082E2AF
:1004300080932B0162C0E6E1F1E12FD609F004C000
:1004400083E280932B0159C0E8E1F1E126D609F05F
:1004500004C084E280932B0150C0EAE1F1E11DD693
:1004600009F004C085E280932B0147C0ECE1F1E183
:1004700014D609F004C086E280932B013EC0EEE161
:10048000F1E10BD609F004C084E080932B0135C064
:10049000E0E2F1E102D609F004C085E080932B018F
:1004A0002CC0E2E2F1E1F9D509F004C086E08093C6
:1004B0002B0123C0E4E2F1E1F0D509F004C087E0AC
:1004C00080932B011AC0E6E2F1E1E7D509F004C000
:1004D00088E080932B0111C0E8E2F1E1DED509F05C
:1004E00004C089E080932B0108C0EAE2F1E1D5D590
:1004F00009F003C08CE280932B013FB6F894ABE285
:10050000B1E0BA93AA938FD02296A8E2B1E08C9181
:100510008F5F8C9308F443CF8EE190E0C4D280E0EB
:100520008093A70004D084EF91E0BDD2CECD00919E
:10053000A400003009F019C0A8E7B0E00C9105FB59
:100540000EF013C08091A700809388003FB6F89406
:10055000A4E8B0E0BA93AA9388E0D2018C9381E03A
:1005600041D4DCD1249681E02ED40895F894FFCFB5
:10057000121201100100000008BBBB33EF010001A3
:1005800002000100290902290001010280C80904B2
:1005900000000203000000092111010001223F00B8
:1005A0000705810308000A0705020308000A3F0542
:1005B000010906A101050719E029E71500250175C4
:1005C000019508810295017508810395057501055E
:1005D0000819012905910295017503910395067586
:1005E00008150025650507190029658100C0040468
:1005F000030904000E0E0352006100640061006EE6
:10060000000000001818034B004C00410056004148
:10061000002000410054004F004D0000000006067D
:100620000331000000003FBEA881B9818C91809306
:10063000A7007DDF8FE090E036D280E08093A700B6
:1006400076DF8FE090E02FD208953FBE80E0809368
:10065000A00080E6A881B9818C93009162000038E7
:1006600009F048C000916300063009F042C00091D3
:100670006500013009F007C0E0E7F5E0EAD181E06C
:100680008093A00036C0023009F007C0E4E8F5E02E
:10069000E0D181E08093A0002CC0033009F029C094
:1006A00000916400003009F007C0EEEEF5E0D1D112
:1006B00081E08093A0001DC0013009F007C0E4EF85
:1006C000F5E0C7D181E08093A00013C0023009F0AB
:1006D00007C0E4E0F6E0BDD181E08093A00009C04E
:1006E000033009F006C0EEE1F6E0B3D181E080937B
:1006F000A00064C0003009F033C0009163000530F1
:1007000009F01BC03FB6F894A881B981BA93AA93A7
:1007100080E0D2018C9381E065D300D1249681E002
:1007200052D3A881B9810C9105FB0EF401C0F9CF19
:10073000809164008093600012C0093009F00FC0FE
:100740003FB6F894A881B981BA93AA9380E0D20108
:100750008C9381E047D3E2D0249681E034D32EC03D
:10076000013809F011C000916300063009F00BC098
:1007700000916500023209F006C0EEEAF5E069D1A9
:1007800081E08093A0001AC0013209F017C00091E7
:1007900063000A3009F012C081E08093A3003FB6E5
:1007A000F894A881B981BA93AA9380E0D2018C937E
:1007B00081E018D3B3D0249681E005D30091A00046
:1007C000013009F00CC03FB6F894A881B981BA9302
:1007D000AA93A8E6B0E0BA93AA9302D0249608950B
:1007E0003FBE81E0F9D281E0F7D281E0F5D282E02C
:1007F000F3D232D1AE81BF8114D30C922AD1AE8113
:10080000BF814C91A885B9850C91041708F006C0EA
:10081000A885B9858C91AE81BF818C9382E0AC8133
:10082000BD818C9381E0AA81BB818C93AE81BF8115
:100830004C91AA81BB810C91041710F009F068C09B
:10084000AC81BD818C918F5F8C9306D1AC81BD81D1
:10085000AD90BB24AA85BB85AA0DBB1D1197E1D223
:100860000C92F7D0AC81BD810C910A3081E009F087
:1008700080E08F93AE81BF814C91AA81BB810C91A6
:10088000041781E009F080E09F91892B882309F407
:1008900038C0AC81BD818C9182508C933FB6F89466
:1008A000AA85BB85BA93AA93AE81BF818C91D201F0
:1008B0008C9381E097D232D0249681E084D2AA85AD
:1008C000BB850C9105FB0EF418C080E090E0A88178
:1008D000B9818D939C9384990FC0A881B981C7D0A9
:1008E000A881B9810D911C91083E53E0150709F0CC
:1008F00002C093D00DC0EFCFE2CF82E0AC81BD81CA
:100900008C93AA81BB818C918F5F8C9308F48ECFDE
:1009100085E0481A80E0580A289608953FBEAA81CB
:10092000BB818C91807C8C9380E090E0ACE9B0E05E
:100930008D939C93A881B9810C91003009F41BC060
:1009400081E08A9381E08A93AA81BB818C918A930A
:100950004FEF5FEF25E030E8AD80BE80A2E0B0E071
:10096000AA0DBB1DADD3ACE9B0E04D935C93ACE9EF
:10097000B0E042E074D0A881B9818C918D5F8C93F6
:10098000AA81BB810C91A881B9814C91040FAA81E5
:10099000BB810C93ACE9B0E08C91A881B981AD909A
:1009A000BB24AA81BB81AA0DBB1D11978C93A88182
:1009B000B9818C918F5F8C93ACE9B0E011968C91EA
:1009C000A881B981AD90BB24AA81BB81AA0DBB1DB2
:1009D00011978C938BE4AA80BB80A1E0B0E0AA0DB4
:1009E000BB1D8C93AA81BB810C9106FB0EF408C041
:1009F00083ECAA80BB80A1E0B0E0AA0DBB1D8C9364
:100A00006894AA81BB818C9184F98C93E894AA8123
:100A1000BB818C9185F98C9308956894AEE9B0E020
:100A20008C9186F98C93E894AEE9B0E08C9187F9CB
:100A30008C9380E28093780080E28093840080E24F
:100A40008093900080E08093600080E08093A3001A
:100A500008958E2E9F2E0895E82DF92D0895EA2FE2
:100A6000FB2F8D91809581934A95D9F70895ED914B
:100A7000FC91EF5FFF4FFC93EE9308958F938D9160
:100A80008823E9F711978F910895042B152B262BB6
:100A9000372B08953197F1F70895689462F8089517
:100AA000E89462F80895EF93FF93EE27E82BE92B83
:100AB00031F0E8EBFBE03197F1F70197D1F7FF91C7
:100AC000EF910895AF93BF934F933F933FB73F93F9
:100AD0003395849BE9F7829909C0849B07C082996A
:100AE00005C0849B03C0829901C08DC0A1E6B0E01F
:100AF00030919E00442736FF4BE08499ECCF2F9332
:100B00001F93A40F40E010B3B41F36FFA40F40E0C2
:100B1000B41F0F9300B32FE73FEF14FB20F910270A
:100B200012FB21F910B3000013C010B332273D931C
:100B30003FEF012702FB20F900B3047199F1297FEF
:100B400091F1102712FB21F910B30000237F89F1E6
:100B50000000012702FB22F900B3277E81F1102754
:100B600012FB23F92F7C89F110B3012702FB24F932
:100B700000C02F7979F100B32F774395102712FB2E
:100B800025F92F7361F110B3012702FB26F92230FA
:100B900058F14C30A8F500B3102712FB27F9243088
:100BA00048F1C3CF3AC00000216000B33E7F1095EA
:100BB000C8CF22603D7F009510B30000C9CF2460EC
:100BC0003B7F1095000000B3CACF2860377F0095A7
:100BD00000C0CACF20613F7E109500C0CCCF2062FC
:100BE0003F7D009500C0CFCF00C020643F7B1095B3
:100BF00000C0D1CF20683F77009500C000C095CFDE
:100C00000F911F912F913AB736FD62CF3F913FBFB1
:100C10003F914F91BF91AF91189530E43ABFA41B1B
:100C2000B0400D91102F13731132C1F41D912D910D
:100C300040916000110F221F16952F70141771F547
:100C4000093649F0013E61F130919E0036FF26C021
:100C50000D3229F123C020939F0049F020919F007D
:100C600025FDCECF30919E00307C322B2F70A8E72F
:100C7000B0E0203049F0A4E8B0E0213029F0A0E94C
:100C8000B0E0223009F00AC01D91093691F0033C12
:100C9000A9F00B3499F0023D31F0B2CF206220610F
:100CA00020939F00ADCF1F7E106230E413271E9368
:100CB000A7CF14FF05C0412F4F7024C036FD02C0DE
:100CC0001AE50BC0433041F036FFFACF30683F7B66
:100CD00030939E004093770012EDBB27A1E141E0E5
:100CE00011C052BB279520F43A9521F4220FF9CF79
:100CF000502736E000C052BB2795B8F43A95B9F4B6
:100D0000220FF9CF5F934F9304E1949A21B32461AA
:100D100021BB52B320E4502736E0000052BB279598
:100D200078F43A9579F4220FF9CF502736E02D91D7
:100D300052BB27958EF178F73A9579F7220FF9CFC4
:100D4000502736E000C052BB279520F43A9521F495
:100D5000220FF9CF502736E000C052BB279520F470
:100D60003A9521F4220FF9CF502736E000C052BB4C
:100D7000279520F43A9521F4220FF9CF502736E039
:100D80004A9547FB52BB279520F43A9521F4220F50
:100D9000F9CF502736E0A5CF00C022B32B7E22BB6F
:100DA0004F91A41BB040422F206131B33B7E00E441
:100DB0000ABF5F910E91037422BB31BB42BB20CFAF
:100DC000481A590A0895481A8827580A08955A92C5
:100DD0004A92480E591E08955A924A92480E882700
:100DE000581E08955A924A92480E8827581E80E14C
:100DF000481684E0580608F40895689462F8089547
:100E0000903071F00D911D912D913C91000F111FAB
:100E1000221F331F9A95D1F73C932E931E930E9366
:100E20000895C89531960020089591E0882321F017
:100E30008894991F8A95E9F7892F909508950181E3
:100E4000082B0183128119231283EF93FF93EEE0A5
:100E5000F0E020DEFF91EF91089522DEFF27E5DF2D
:100E6000EEDFEF93FF93ECE9F5E014DEFF91EF91F5
:100E7000182B128309230183EF93FF93EEECF0E02C
:100E800009DEFF91EF911081182309F006DEEF9340
:100E9000FF93EAECF4E0FEDDFF91EF910895C5DFEA
:100EA000FF2721E048E005C0C0DFFF2729915D91C1
:100EB00048E0C5DF579510F4182B1283EF93FF938A
:100EC000EEE9F0E0E7DDFF91EF91182B1283EF934D
:100ED000FF93EAE1F0E0DEDDFF91EF914A9549F7FB
:100EE0002A9529F70895A1DFFF27299148E0552782
:100EF000A6DF09230183EF93FF93E7E1F0E0CADD6A
:100F0000FF91EF9188941081182309F00894579568
:100F1000EF93FF93E1EAF0E0BDDDFF91EF914A9599
:100F200039F75D932A9511F70895000F111F221FBD
:100F3000331F089500951095209530950F5F1F4F32
:100F40002F4F3F4F0895019110810EC001911191D3
:100F5000219130810BC00191108117FF05C03FEF37
:100F60002FEF04C0008111272227332737FF03C04A
:100F7000E1DF8DE28D93CF93DF93CF92DF92EF92FB
:100F8000AA24BB24CC24DD24EE2440E2CAE0DD27E1
:100F900055E093E38881890F87FD9F7083FD907FE3
:100FA000891B89935A95A9F7C0DFAA1CBB1CCC1CCE
:100FB000DD1CEE1C4A9551F7E894EFE0FF27829183
:100FC0000ED0EB30E0F71EF068948A2D0CD0882705
:100FD0008D93EF90DF90CF90DF91CF910895982F70
:100FE000829501D0892F8F70805D26F0803309F4BF
:100FF000089568948D93089541E003C042E001C0D4
:1010000044E0E40F8827F81F8291982F829505D03D
:10101000892F03D04A95C1F707C08F708A3008F036
:10102000895F805D8D93089588278D930895099138
:101030009191992351F08A95D9F7319781918D93A8
:101040000A9519F08823D1F70895EECFE199FECFE4
:10105000EEBBFFBB3196089591E001C092E07B3773
:1010600051F47FB7F894F2DF8D918DBBE29AE19A4B
:101070009A95C9F77FBF7727089591E001C092E064
:10108000E5DFE09A8DB38D939A95D1F708958FEFB0
:1010900083959D919923E1F70895689401C0E894A0
:1010A000AF93BF938D9116F0919102C0BADE902D4F
:1010B000891718F011F48823A9F7BF91AF9108950B
:1010C00079910D919981903009F013D0502788E0E3
:1010D000440F551F10F4422753278A95C9F77A9574
:1010E00081F789919991803019F08A0105D0A80182
:1010F000089588E0112701C080E1F801F695E79591
:10110000001F111F8A95D1F7089530003100320079
:101110003300340035003600370038003900410014
:0C1120004200430044004500460020004F
:00000001FF
